{
  "_format": "hh-sol-artifact-1",
  "contractName": "Fein",
  "sourceName": "src/web3_contracts/contracts/Fein.sol",
  "abi": [
    {
      "inputs": [],
      "stateMutability": "nonpayable",
      "type": "constructor"
    },
    {
      "inputs": [
        {
          "internalType": "address",
          "name": "sender",
          "type": "address"
        },
        {
          "internalType": "uint256",
          "name": "balance",
          "type": "uint256"
        },
        {
          "internalType": "uint256",
          "name": "needed",
          "type": "uint256"
        },
        {
          "internalType": "uint256",
          "name": "tokenId",
          "type": "uint256"
        }
      ],
      "name": "ERC1155InsufficientBalance",
      "type": "error"
    },
    {
      "inputs": [
        {
          "internalType": "address",
          "name": "approver",
          "type": "address"
        }
      ],
      "name": "ERC1155InvalidApprover",
      "type": "error"
    },
    {
      "inputs": [
        {
          "internalType": "uint256",
          "name": "idsLength",
          "type": "uint256"
        },
        {
          "internalType": "uint256",
          "name": "valuesLength",
          "type": "uint256"
        }
      ],
      "name": "ERC1155InvalidArrayLength",
      "type": "error"
    },
    {
      "inputs": [
        {
          "internalType": "address",
          "name": "operator",
          "type": "address"
        }
      ],
      "name": "ERC1155InvalidOperator",
      "type": "error"
    },
    {
      "inputs": [
        {
          "internalType": "address",
          "name": "receiver",
          "type": "address"
        }
      ],
      "name": "ERC1155InvalidReceiver",
      "type": "error"
    },
    {
      "inputs": [
        {
          "internalType": "address",
          "name": "sender",
          "type": "address"
        }
      ],
      "name": "ERC1155InvalidSender",
      "type": "error"
    },
    {
      "inputs": [
        {
          "internalType": "address",
          "name": "operator",
          "type": "address"
        },
        {
          "internalType": "address",
          "name": "owner",
          "type": "address"
        }
      ],
      "name": "ERC1155MissingApprovalForAll",
      "type": "error"
    },
    {
      "anonymous": false,
      "inputs": [
        {
          "indexed": true,
          "internalType": "address",
          "name": "account",
          "type": "address"
        },
        {
          "indexed": true,
          "internalType": "address",
          "name": "operator",
          "type": "address"
        },
        {
          "indexed": false,
          "internalType": "bool",
          "name": "approved",
          "type": "bool"
        }
      ],
      "name": "ApprovalForAll",
      "type": "event"
    },
    {
      "anonymous": false,
      "inputs": [
        {
          "indexed": true,
          "internalType": "uint256",
          "name": "tokenId",
          "type": "uint256"
        },
        {
          "indexed": false,
          "internalType": "uint256",
          "name": "amount",
          "type": "uint256"
        }
      ],
      "name": "FundsAdded",
      "type": "event"
    },
    {
      "anonymous": false,
      "inputs": [
        {
          "indexed": true,
          "internalType": "uint256",
          "name": "tokenId",
          "type": "uint256"
        },
        {
          "indexed": true,
          "internalType": "address",
          "name": "creator",
          "type": "address"
        },
        {
          "indexed": false,
          "internalType": "uint256",
          "name": "totalSupply",
          "type": "uint256"
        },
        {
          "indexed": false,
          "internalType": "uint256",
          "name": "totalFractionalAmount",
          "type": "uint256"
        }
      ],
      "name": "NFTMinted",
      "type": "event"
    },
    {
      "anonymous": false,
      "inputs": [
        {
          "indexed": true,
          "internalType": "uint256",
          "name": "tokenId",
          "type": "uint256"
        },
        {
          "indexed": false,
          "internalType": "uint256",
          "name": "amount",
          "type": "uint256"
        }
      ],
      "name": "RevenueDistributed",
      "type": "event"
    },
    {
      "anonymous": false,
      "inputs": [
        {
          "indexed": true,
          "internalType": "uint256",
          "name": "tokenId",
          "type": "uint256"
        },
        {
          "indexed": true,
          "internalType": "address",
          "name": "buyer",
          "type": "address"
        },
        {
          "indexed": false,
          "internalType": "uint256",
          "name": "tokensPurchased",
          "type": "uint256"
        },
        {
          "indexed": false,
          "internalType": "uint256",
          "name": "amountPaid",
          "type": "uint256"
        }
      ],
      "name": "StakePurchased",
      "type": "event"
    },
    {
      "anonymous": false,
      "inputs": [
        {
          "indexed": true,
          "internalType": "address",
          "name": "operator",
          "type": "address"
        },
        {
          "indexed": true,
          "internalType": "address",
          "name": "from",
          "type": "address"
        },
        {
          "indexed": true,
          "internalType": "address",
          "name": "to",
          "type": "address"
        },
        {
          "indexed": false,
          "internalType": "uint256[]",
          "name": "ids",
          "type": "uint256[]"
        },
        {
          "indexed": false,
          "internalType": "uint256[]",
          "name": "values",
          "type": "uint256[]"
        }
      ],
      "name": "TransferBatch",
      "type": "event"
    },
    {
      "anonymous": false,
      "inputs": [
        {
          "indexed": true,
          "internalType": "address",
          "name": "operator",
          "type": "address"
        },
        {
          "indexed": true,
          "internalType": "address",
          "name": "from",
          "type": "address"
        },
        {
          "indexed": true,
          "internalType": "address",
          "name": "to",
          "type": "address"
        },
        {
          "indexed": false,
          "internalType": "uint256",
          "name": "id",
          "type": "uint256"
        },
        {
          "indexed": false,
          "internalType": "uint256",
          "name": "value",
          "type": "uint256"
        }
      ],
      "name": "TransferSingle",
      "type": "event"
    },
    {
      "anonymous": false,
      "inputs": [
        {
          "indexed": false,
          "internalType": "string",
          "name": "value",
          "type": "string"
        },
        {
          "indexed": true,
          "internalType": "uint256",
          "name": "id",
          "type": "uint256"
        }
      ],
      "name": "URI",
      "type": "event"
    },
    {
      "stateMutability": "payable",
      "type": "fallback"
    },
    {
      "inputs": [
        {
          "internalType": "uint256",
          "name": "tokenId",
          "type": "uint256"
        }
      ],
      "name": "addRevenueGen",
      "outputs": [],
      "stateMutability": "payable",
      "type": "function"
    },
    {
      "inputs": [
        {
          "internalType": "uint256",
          "name": "tokenId",
          "type": "uint256"
        }
      ],
      "name": "artistTokenSales",
      "outputs": [],
      "stateMutability": "payable",
      "type": "function"
    },
    {
      "inputs": [
        {
          "internalType": "address",
          "name": "account",
          "type": "address"
        },
        {
          "internalType": "uint256",
          "name": "id",
          "type": "uint256"
        }
      ],
      "name": "balanceOf",
      "outputs": [
        {
          "internalType": "uint256",
          "name": "",
          "type": "uint256"
        }
      ],
      "stateMutability": "view",
      "type": "function"
    },
    {
      "inputs": [
        {
          "internalType": "address[]",
          "name": "accounts",
          "type": "address[]"
        },
        {
          "internalType": "uint256[]",
          "name": "ids",
          "type": "uint256[]"
        }
      ],
      "name": "balanceOfBatch",
      "outputs": [
        {
          "internalType": "uint256[]",
          "name": "",
          "type": "uint256[]"
        }
      ],
      "stateMutability": "view",
      "type": "function"
    },
    {
      "inputs": [
        {
          "internalType": "uint256",
          "name": "tokenId",
          "type": "uint256"
        }
      ],
      "name": "buyStake",
      "outputs": [],
      "stateMutability": "payable",
      "type": "function"
    },
    {
      "inputs": [],
      "name": "contractOwner",
      "outputs": [
        {
          "internalType": "address",
          "name": "",
          "type": "address"
        }
      ],
      "stateMutability": "view",
      "type": "function"
    },
    {
      "inputs": [],
      "name": "currentTokenID",
      "outputs": [
        {
          "internalType": "uint256",
          "name": "",
          "type": "uint256"
        }
      ],
      "stateMutability": "view",
      "type": "function"
    },
    {
      "inputs": [
        {
          "internalType": "uint256",
          "name": "tokenId",
          "type": "uint256"
        }
      ],
      "name": "distributeRevenue",
      "outputs": [],
      "stateMutability": "payable",
      "type": "function"
    },
    {
      "inputs": [
        {
          "internalType": "uint256",
          "name": "",
          "type": "uint256"
        },
        {
          "internalType": "address",
          "name": "",
          "type": "address"
        }
      ],
      "name": "fractionalOwnership",
      "outputs": [
        {
          "internalType": "uint256",
          "name": "",
          "type": "uint256"
        }
      ],
      "stateMutability": "view",
      "type": "function"
    },
    {
      "inputs": [
        {
          "internalType": "uint256",
          "name": "_tokenid",
          "type": "uint256"
        }
      ],
      "name": "geturi",
      "outputs": [
        {
          "internalType": "string",
          "name": "",
          "type": "string"
        }
      ],
      "stateMutability": "view",
      "type": "function"
    },
    {
      "inputs": [
        {
          "internalType": "address",
          "name": "account",
          "type": "address"
        },
        {
          "internalType": "address",
          "name": "operator",
          "type": "address"
        }
      ],
      "name": "isApprovedForAll",
      "outputs": [
        {
          "internalType": "bool",
          "name": "",
          "type": "bool"
        }
      ],
      "stateMutability": "view",
      "type": "function"
    },
    {
      "inputs": [
        {
          "internalType": "uint256",
          "name": "_totalSupply",
          "type": "uint256"
        },
        {
          "internalType": "uint256",
          "name": "_totalFractionalAmount",
          "type": "uint256"
        },
        {
          "internalType": "uint256",
          "name": "_percentageShare",
          "type": "uint256"
        }
      ],
      "name": "mintNFT",
      "outputs": [],
      "stateMutability": "nonpayable",
      "type": "function"
    },
    {
      "inputs": [
        {
          "internalType": "uint256",
          "name": "",
          "type": "uint256"
        },
        {
          "internalType": "uint256",
          "name": "",
          "type": "uint256"
        }
      ],
      "name": "participants",
      "outputs": [
        {
          "internalType": "address",
          "name": "",
          "type": "address"
        }
      ],
      "stateMutability": "view",
      "type": "function"
    },
    {
      "inputs": [
        {
          "internalType": "uint256",
          "name": "tokenId",
          "type": "uint256"
        }
      ],
      "name": "releaseSong",
      "outputs": [],
      "stateMutability": "nonpayable",
      "type": "function"
    },
    {
      "inputs": [
        {
          "internalType": "address",
          "name": "from",
          "type": "address"
        },
        {
          "internalType": "address",
          "name": "to",
          "type": "address"
        },
        {
          "internalType": "uint256[]",
          "name": "ids",
          "type": "uint256[]"
        },
        {
          "internalType": "uint256[]",
          "name": "values",
          "type": "uint256[]"
        },
        {
          "internalType": "bytes",
          "name": "data",
          "type": "bytes"
        }
      ],
      "name": "safeBatchTransferFrom",
      "outputs": [],
      "stateMutability": "nonpayable",
      "type": "function"
    },
    {
      "inputs": [
        {
          "internalType": "address",
          "name": "from",
          "type": "address"
        },
        {
          "internalType": "address",
          "name": "to",
          "type": "address"
        },
        {
          "internalType": "uint256",
          "name": "id",
          "type": "uint256"
        },
        {
          "internalType": "uint256",
          "name": "value",
          "type": "uint256"
        },
        {
          "internalType": "bytes",
          "name": "data",
          "type": "bytes"
        }
      ],
      "name": "safeTransferFrom",
      "outputs": [],
      "stateMutability": "nonpayable",
      "type": "function"
    },
    {
      "inputs": [
        {
          "internalType": "address",
          "name": "operator",
          "type": "address"
        },
        {
          "internalType": "bool",
          "name": "approved",
          "type": "bool"
        }
      ],
      "name": "setApprovalForAll",
      "outputs": [],
      "stateMutability": "nonpayable",
      "type": "function"
    },
    {
      "inputs": [
        {
          "internalType": "bytes4",
          "name": "interfaceId",
          "type": "bytes4"
        }
      ],
      "name": "supportsInterface",
      "outputs": [
        {
          "internalType": "bool",
          "name": "",
          "type": "bool"
        }
      ],
      "stateMutability": "view",
      "type": "function"
    },
    {
      "inputs": [
        {
          "internalType": "uint256",
          "name": "",
          "type": "uint256"
        }
      ],
      "name": "tokenData",
      "outputs": [
        {
          "internalType": "uint256",
          "name": "tokenSupply",
          "type": "uint256"
        },
        {
          "internalType": "string",
          "name": "uri",
          "type": "string"
        },
        {
          "internalType": "address",
          "name": "creator",
          "type": "address"
        },
        {
          "internalType": "uint256",
          "name": "countoftotalsupply",
          "type": "uint256"
        },
        {
          "internalType": "uint256",
          "name": "fundsCollected",
          "type": "uint256"
        },
        {
          "internalType": "uint256",
          "name": "revenue",
          "type": "uint256"
        },
        {
          "internalType": "uint256",
          "name": "totalFractionalAmount",
          "type": "uint256"
        },
        {
          "internalType": "bool",
          "name": "soldOut",
          "type": "bool"
        },
        {
          "internalType": "bool",
          "name": "isReleased",
          "type": "bool"
        },
        {
          "internalType": "uint256",
          "name": "percentageShare",
          "type": "uint256"
        },
        {
          "internalType": "uint256",
          "name": "pricePerToken",
          "type": "uint256"
        }
      ],
      "stateMutability": "view",
      "type": "function"
    },
    {
      "inputs": [
        {
          "internalType": "uint256",
          "name": "",
          "type": "uint256"
        }
      ],
      "name": "uri",
      "outputs": [
        {
          "internalType": "string",
          "name": "",
          "type": "string"
        }
      ],
      "stateMutability": "view",
      "type": "function"
    },
    {
      "inputs": [
        {
          "internalType": "uint256",
          "name": "tokenId",
          "type": "uint256"
        }
      ],
      "name": "withdrawFunds",
      "outputs": [],
      "stateMutability": "nonpayable",
      "type": "function"
    },
    {
      "stateMutability": "payable",
      "type": "receive"
    }
  ],
  "bytecode": "0x608060405260006003553480156200001657600080fd5b506040518060a0016040528060688152602001620048706068913962000042816200008a60201b60201c565b5033600460006101000a81548173ffffffffffffffffffffffffffffffffffffffff021916908373ffffffffffffffffffffffffffffffffffffffff16021790555062000400565b80600290816200009b919062000319565b5050565b600081519050919050565b7f4e487b7100000000000000000000000000000000000000000000000000000000600052604160045260246000fd5b7f4e487b7100000000000000000000000000000000000000000000000000000000600052602260045260246000fd5b600060028204905060018216806200012157607f821691505b602082108103620001375762000136620000d9565b5b50919050565b60008190508160005260206000209050919050565b60006020601f8301049050919050565b600082821b905092915050565b600060088302620001a17fffffffffffffffffffffffffffffffffffffffffffffffffffffffffffffffff8262000162565b620001ad868362000162565b95508019841693508086168417925050509392505050565b6000819050919050565b6000819050919050565b6000620001fa620001f4620001ee84620001c5565b620001cf565b620001c5565b9050919050565b6000819050919050565b6200021683620001d9565b6200022e620002258262000201565b8484546200016f565b825550505050565b600090565b6200024562000236565b620002528184846200020b565b505050565b5b818110156200027a576200026e6000826200023b565b60018101905062000258565b5050565b601f821115620002c95762000293816200013d565b6200029e8462000152565b81016020851015620002ae578190505b620002c6620002bd8562000152565b83018262000257565b50505b505050565b600082821c905092915050565b6000620002ee60001984600802620002ce565b1980831691505092915050565b6000620003098383620002db565b9150826002028217905092915050565b62000324826200009f565b67ffffffffffffffff81111562000340576200033f620000aa565b5b6200034c825462000108565b620003598282856200027e565b600060209050601f8311600181146200039157600084156200037c578287015190505b620003888582620002fb565b865550620003f8565b601f198416620003a1866200013d565b60005b82811015620003cb57848901518255600182019150602085019450602081019050620003a4565b86831015620003eb5784890151620003e7601f891682620002db565b8355505b6001600288020188555050505b505050505050565b61446080620004106000396000f3fe60806040526004361061012d5760003560e01c806359fde1e0116100ab578063bb62115e1161006f578063bb62115e1461040c578063c693846214610437578063ce606ee014610474578063d2facde11461049f578063e985e9c5146104bb578063f242432a146104f857610134565b806359fde1e01461032757806381fb1fb414610343578063a22cb46514610380578063b4b5b48f146103a9578063b9d2b803146103f057610134565b806317c6ab40116100f257806317c6ab401461023f5780631d50869d1461027c5780632eb2c2d6146102a55780634dc70474146102ce5780634e1273f4146102ea57610134565b8062fdd58e1461013657806301ffc9a71461017357806303c67a45146101b05780630e89341c146101d9578063155dd5ee1461021657610134565b3661013457005b005b34801561014257600080fd5b5061015d60048036038101906101589190612b84565b610521565b60405161016a9190612bd3565b60405180910390f35b34801561017f57600080fd5b5061019a60048036038101906101959190612c46565b61057b565b6040516101a79190612c8e565b60405180910390f35b3480156101bc57600080fd5b506101d760048036038101906101d29190612ca9565b61065d565b005b3480156101e557600080fd5b5061020060048036038101906101fb9190612ca9565b610789565b60405161020d9190612d66565b60405180910390f35b34801561022257600080fd5b5061023d60048036038101906102389190612ca9565b61081d565b005b34801561024b57600080fd5b5061026660048036038101906102619190612d88565b610978565b6040516102739190612bd3565b60405180910390f35b34801561028857600080fd5b506102a3600480360381019061029e9190612dc8565b61099d565b005b3480156102b157600080fd5b506102cc60048036038101906102c79190613018565b610c06565b005b6102e860048036038101906102e39190612ca9565b610cae565b005b3480156102f657600080fd5b50610311600480360381019061030c91906131aa565b610e3e565b60405161031e91906132e0565b60405180910390f35b610341600480360381019061033c9190612ca9565b610f4d565b005b34801561034f57600080fd5b5061036a60048036038101906103659190613302565b61135e565b6040516103779190613351565b60405180910390f35b34801561038c57600080fd5b506103a760048036038101906103a29190613398565b6113ac565b005b3480156103b557600080fd5b506103d060048036038101906103cb9190612ca9565b6113c2565b6040516103e79b9a999897969594939291906133d8565b60405180910390f35b61040a60048036038101906104059190612ca9565b6114de565b005b34801561041857600080fd5b50610421611879565b60405161042e9190612bd3565b60405180910390f35b34801561044357600080fd5b5061045e60048036038101906104599190612ca9565b61187f565b60405161046b9190612d66565b60405180910390f35b34801561048057600080fd5b50610489611927565b6040516104969190613351565b60405180910390f35b6104b960048036038101906104b49190612ca9565b61194d565b005b3480156104c757600080fd5b506104e260048036038101906104dd919061348a565b611ae1565b6040516104ef9190612c8e565b60405180910390f35b34801561050457600080fd5b5061051f600480360381019061051a91906134ca565b611b75565b005b600080600083815260200190815260200160002060008473ffffffffffffffffffffffffffffffffffffffff1673ffffffffffffffffffffffffffffffffffffffff16815260200190815260200160002054905092915050565b60007fd9b67a26000000000000000000000000000000000000000000000000000000007bffffffffffffffffffffffffffffffffffffffffffffffffffffffff1916827bffffffffffffffffffffffffffffffffffffffffffffffffffffffff1916148061064657507f0e89341c000000000000000000000000000000000000000000000000000000007bffffffffffffffffffffffffffffffffffffffffffffffffffffffff1916827bffffffffffffffffffffffffffffffffffffffffffffffffffffffff1916145b80610656575061065582611c1d565b5b9050919050565b600460009054906101000a900473ffffffffffffffffffffffffffffffffffffffff1673ffffffffffffffffffffffffffffffffffffffff163373ffffffffffffffffffffffffffffffffffffffff16146106ed576040517f08c379a00000000000000000000000000000000000000000000000000000000081526004016106e4906135ad565b60405180910390fd5b600015156005600083815260200190815260200160002060070160019054906101000a900460ff16151514610757576040517f08c379a000000000000000000000000000000000000000000000000000000000815260040161074e90613619565b60405180910390fd5b60016005600083815260200190815260200160002060070160016101000a81548160ff02191690831515021790555050565b60606002805461079890613668565b80601f01602080910402602001604051908101604052809291908181526020018280546107c490613668565b80156108115780601f106107e657610100808354040283529160200191610811565b820191906000526020600020905b8154815290600101906020018083116107f457829003601f168201915b50505050509050919050565b600460009054906101000a900473ffffffffffffffffffffffffffffffffffffffff1673ffffffffffffffffffffffffffffffffffffffff163373ffffffffffffffffffffffffffffffffffffffff16146108ad576040517f08c379a00000000000000000000000000000000000000000000000000000000081526004016108a4906135ad565b60405180910390fd5b6000600560008381526020019081526020016000206005015490506000811161090b576040517f08c379a0000000000000000000000000000000000000000000000000000000008152600401610902906136e5565b60405180910390fd5b600460009054906101000a900473ffffffffffffffffffffffffffffffffffffffff1673ffffffffffffffffffffffffffffffffffffffff166108fc829081150290604051600060405180830381858888f19350505050158015610973573d6000803e3d6000fd5b505050565b6007602052816000526040600020602052806000526040600020600091509150505481565b600060035490506109bf33828660405180602001604052806000815250611c87565b6109c881611d20565b6040516020016109d8919061384b565b604051602081830303815290604052600560008381526020019081526020016000206001019081610a099190613a24565b50836005600083815260200190815260200160002060000181905550836005600083815260200190815260200160002060030181905550336005600083815260200190815260200160002060020160006101000a81548173ffffffffffffffffffffffffffffffffffffffff021916908373ffffffffffffffffffffffffffffffffffffffff1602179055508260056000838152602001908152602001600020600601819055506000600560008381526020019081526020016000206004018190555060036000815480929190610adf90613b25565b919050555060006005600083815260200190815260200160002060070160006101000a81548160ff02191690831515021790555060006005600083815260200190815260200160002060070160016101000a81548160ff02191690831515021790555081600560008381526020019081526020016000206008018190555060056000828152602001908152602001600020600301546005600083815260200190815260200160002060060154610b959190613b9c565b60056000838152602001908152602001600020600901819055503373ffffffffffffffffffffffffffffffffffffffff16817f0713ae16a171f65c6877fd4bff12d9157605b607ef798a53c771cbadd0892ff48686604051610bf8929190613bcd565b60405180910390a350505050565b6000610c10611dee565b90508073ffffffffffffffffffffffffffffffffffffffff168673ffffffffffffffffffffffffffffffffffffffff1614158015610c555750610c538682611ae1565b155b15610c995780866040517fe237d922000000000000000000000000000000000000000000000000000000008152600401610c90929190613bf6565b60405180910390fd5b610ca68686868686611df6565b505050505050565b600460009054906101000a900473ffffffffffffffffffffffffffffffffffffffff1673ffffffffffffffffffffffffffffffffffffffff163373ffffffffffffffffffffffffffffffffffffffff1614610d3e576040517f08c379a0000000000000000000000000000000000000000000000000000000008152600401610d35906135ad565b60405180910390fd5b600115156005600083815260200190815260200160002060070160019054906101000a900460ff16151514610da8576040517f08c379a0000000000000000000000000000000000000000000000000000000008152600401610d9f90613c6b565b60405180910390fd5b6005600082815260200190815260200160002060020160009054906101000a900473ffffffffffffffffffffffffffffffffffffffff1673ffffffffffffffffffffffffffffffffffffffff166108fc60056000848152602001908152602001600020600401549081150290604051600060405180830381858888f19350505050158015610e3a573d6000803e3d6000fd5b5050565b60608151835114610e8a57815183516040517f5b059991000000000000000000000000000000000000000000000000000000008152600401610e81929190613bcd565b60405180910390fd5b6000835167ffffffffffffffff811115610ea757610ea6612e20565b5b604051908082528060200260200182016040528015610ed55781602001602082028036833780820191505090505b50905060005b8451811015610f4257610f12610efa8287611eee90919063ffffffff16565b610f0d8387611f0290919063ffffffff16565b610521565b828281518110610f2557610f24613c8b565b5b60200260200101818152505080610f3b90613b25565b9050610edb565b508091505092915050565b600460009054906101000a900473ffffffffffffffffffffffffffffffffffffffff1673ffffffffffffffffffffffffffffffffffffffff163373ffffffffffffffffffffffffffffffffffffffff1614610fdd576040517f08c379a0000000000000000000000000000000000000000000000000000000008152600401610fd4906135ad565b60405180910390fd5b60006064600560008481526020019081526020016000206008015460056000858152602001908152602001600020600501546110199190613cba565b6110239190613b9c565b9050600115156005600084815260200190815260200160002060070160019054906101000a900460ff1615151461108f576040517f08c379a000000000000000000000000000000000000000000000000000000000815260040161108690613d6e565b60405180910390fd5b600081116110d2576040517f08c379a00000000000000000000000000000000000000000000000000000000081526004016110c990613e00565b60405180910390fd5b60006005600084815260200190815260200160002060060154905060008111611130576040517f08c379a000000000000000000000000000000000000000000000000000000000815260040161112790613e6c565b60405180910390fd5b60005b600660008581526020019081526020016000208054905081101561127c57600060066000868152602001908152602001600020828154811061117857611177613c8b565b5b9060005260206000200160009054906101000a900473ffffffffffffffffffffffffffffffffffffffff16905060006007600087815260200190815260200160002060008373ffffffffffffffffffffffffffffffffffffffff1673ffffffffffffffffffffffffffffffffffffffff16815260200190815260200160002054905060008111156112675760008482876112129190613cba565b61121c9190613b9c565b90508273ffffffffffffffffffffffffffffffffffffffff166108fc829081150290604051600060405180830381858888f19350505050158015611264573d6000803e3d6000fd5b50505b5050808061127490613b25565b915050611133565b5060008260056000868152602001908152602001600020600501546112a19190613e8c565b90506005600085815260200190815260200160002060020160009054906101000a900473ffffffffffffffffffffffffffffffffffffffff1673ffffffffffffffffffffffffffffffffffffffff166108fc829081150290604051600060405180830381858888f1935050505015801561131f573d6000803e3d6000fd5b50837ff2838e4b541f90d41a1076a560d75e948f7d1008e72118a655568626a30b451f846040516113509190612bd3565b60405180910390a250505050565b6006602052816000526040600020818154811061137a57600080fd5b906000526020600020016000915091509054906101000a900473ffffffffffffffffffffffffffffffffffffffff1681565b6113be6113b7611dee565b8383611f16565b5050565b60056020528060005260406000206000915090508060000154908060010180546113eb90613668565b80601f016020809104026020016040519081016040528092919081815260200182805461141790613668565b80156114645780601f1061143957610100808354040283529160200191611464565b820191906000526020600020905b81548152906001019060200180831161144757829003601f168201915b5050505050908060020160009054906101000a900473ffffffffffffffffffffffffffffffffffffffff16908060030154908060040154908060050154908060060154908060070160009054906101000a900460ff16908060070160019054906101000a900460ff1690806008015490806009015490508b565b600060056000838152602001908152602001600020600001549050600015156005600084815260200190815260200160002060070160009054906101000a900460ff16151514611563576040517f08c379a000000000000000000000000000000000000000000000000000000000815260040161155a90613f0c565b60405180910390fd5b600081116115a6576040517f08c379a000000000000000000000000000000000000000000000000000000000815260040161159d90613f9e565b60405180910390fd5b60018110156115ea576040517f08c379a00000000000000000000000000000000000000000000000000000000081526004016115e190614030565b60405180910390fd5b60006005600084815260200190815260200160002060090154905080341015611648576040517f08c379a000000000000000000000000000000000000000000000000000000000815260040161163f9061409c565b60405180910390fd5b60006007600085815260200190815260200160002060003373ffffffffffffffffffffffffffffffffffffffff1673ffffffffffffffffffffffffffffffffffffffff16815260200190815260200160002054036117155760066000848152602001908152602001600020339080600181540180825580915050600190039060005260206000200160009091909190916101000a81548173ffffffffffffffffffffffffffffffffffffffff021916908373ffffffffffffffffffffffffffffffffffffffff1602179055505b6007600084815260200190815260200160002060003373ffffffffffffffffffffffffffffffffffffffff1673ffffffffffffffffffffffffffffffffffffffff168152602001908152602001600020600081548092919061177690613b25565b9190505550346005600085815260200190815260200160002060040160008282546117a191906140bc565b925050819055506005600084815260200190815260200160002060000160008154809291906117cf906140f0565b91905055503373ffffffffffffffffffffffffffffffffffffffff16837f24b22275ff9f36a2d0d5a5564c044f4618382392dab42d26cdfa0ff9cd9850d860018460405161181e929190614154565b60405180910390a360006005600085815260200190815260200160002060000154036118745760016005600085815260200190815260200160002060070160006101000a81548160ff0219169083151502179055505b505050565b60035481565b60606005600083815260200190815260200160002060010180546118a290613668565b80601f01602080910402602001604051908101604052809291908181526020018280546118ce90613668565b801561191b5780601f106118f05761010080835404028352916020019161191b565b820191906000526020600020905b8154815290600101906020018083116118fe57829003601f168201915b50505050509050919050565b600460009054906101000a900473ffffffffffffffffffffffffffffffffffffffff1681565b600460009054906101000a900473ffffffffffffffffffffffffffffffffffffffff1673ffffffffffffffffffffffffffffffffffffffff163373ffffffffffffffffffffffffffffffffffffffff16146119dd576040517f08c379a00000000000000000000000000000000000000000000000000000000081526004016119d4906135ad565b60405180910390fd5b6000600560008381526020019081526020016000206006015411611a36576040517f08c379a0000000000000000000000000000000000000000000000000000000008152600401611a2d906141c9565b60405180910390fd5b60003411611a79576040517f08c379a0000000000000000000000000000000000000000000000000000000008152600401611a7090614235565b60405180910390fd5b34600560008381526020019081526020016000206005016000828254611a9f91906140bc565b92505081905550807ff5e4934928a1e45d88c7a5aa2661fe0a801ca5017922e15122d74f1880155e1a34604051611ad69190612bd3565b60405180910390a250565b6000600160008473ffffffffffffffffffffffffffffffffffffffff1673ffffffffffffffffffffffffffffffffffffffff16815260200190815260200160002060008373ffffffffffffffffffffffffffffffffffffffff1673ffffffffffffffffffffffffffffffffffffffff16815260200190815260200160002060009054906101000a900460ff16905092915050565b6000611b7f611dee565b90508073ffffffffffffffffffffffffffffffffffffffff168673ffffffffffffffffffffffffffffffffffffffff1614158015611bc45750611bc28682611ae1565b155b15611c085780866040517fe237d922000000000000000000000000000000000000000000000000000000008152600401611bff929190613bf6565b60405180910390fd5b611c158686868686612086565b505050505050565b60007f01ffc9a7000000000000000000000000000000000000000000000000000000007bffffffffffffffffffffffffffffffffffffffffffffffffffffffff1916827bffffffffffffffffffffffffffffffffffffffffffffffffffffffff1916149050919050565b600073ffffffffffffffffffffffffffffffffffffffff168473ffffffffffffffffffffffffffffffffffffffff1603611cf95760006040517f57f447ce000000000000000000000000000000000000000000000000000000008152600401611cf09190613351565b60405180910390fd5b600080611d068585612191565b91509150611d186000878484876121c1565b505050505050565b606060006001611d2f84612273565b01905060008167ffffffffffffffff811115611d4e57611d4d612e20565b5b6040519080825280601f01601f191660200182016040528015611d805781602001600182028036833780820191505090505b509050600082602001820190505b600115611de3578080600190039150507f3031323334353637383961626364656600000000000000000000000000000000600a86061a8153600a8581611dd757611dd6613b6d565b5b04945060008503611d8e575b819350505050919050565b600033905090565b600073ffffffffffffffffffffffffffffffffffffffff168473ffffffffffffffffffffffffffffffffffffffff1603611e685760006040517f57f447ce000000000000000000000000000000000000000000000000000000008152600401611e5f9190613351565b60405180910390fd5b600073ffffffffffffffffffffffffffffffffffffffff168573ffffffffffffffffffffffffffffffffffffffff1603611eda5760006040517f01a83514000000000000000000000000000000000000000000000000000000008152600401611ed19190613351565b60405180910390fd5b611ee785858585856121c1565b5050505050565b600060208202602084010151905092915050565b600060208202602084010151905092915050565b600073ffffffffffffffffffffffffffffffffffffffff168273ffffffffffffffffffffffffffffffffffffffff1603611f885760006040517fced3e100000000000000000000000000000000000000000000000000000000008152600401611f7f9190613351565b60405180910390fd5b80600160008573ffffffffffffffffffffffffffffffffffffffff1673ffffffffffffffffffffffffffffffffffffffff16815260200190815260200160002060008473ffffffffffffffffffffffffffffffffffffffff1673ffffffffffffffffffffffffffffffffffffffff16815260200190815260200160002060006101000a81548160ff0219169083151502179055508173ffffffffffffffffffffffffffffffffffffffff168373ffffffffffffffffffffffffffffffffffffffff167f17307eab39ab6107e8899845ad3d59bd9653f200f220920489ca2b5937696c31836040516120799190612c8e565b60405180910390a3505050565b600073ffffffffffffffffffffffffffffffffffffffff168473ffffffffffffffffffffffffffffffffffffffff16036120f85760006040517f57f447ce0000000000000000000000000000000000000000000000000000000081526004016120ef9190613351565b60405180910390fd5b600073ffffffffffffffffffffffffffffffffffffffff168573ffffffffffffffffffffffffffffffffffffffff160361216a5760006040517f01a835140000000000000000000000000000000000000000000000000000000081526004016121619190613351565b60405180910390fd5b6000806121778585612191565b9150915061218887878484876121c1565b50505050505050565b60608060405191506001825283602083015260408201905060018152826020820152604081016040529250929050565b6121cd858585856123c6565b600073ffffffffffffffffffffffffffffffffffffffff168473ffffffffffffffffffffffffffffffffffffffff161461226c57600061220b611dee565b9050600184510361225b57600061222c600086611f0290919063ffffffff16565b90506000612244600086611f0290919063ffffffff16565b9050612254838989858589612774565b505061226a565b612269818787878787612928565b5b505b5050505050565b600080600090507a184f03e93ff9f4daa797ed6e38ed64bf6a1f01000000000000000083106122d1577a184f03e93ff9f4daa797ed6e38ed64bf6a1f01000000000000000083816122c7576122c6613b6d565b5b0492506040810190505b6d04ee2d6d415b85acef8100000000831061230e576d04ee2d6d415b85acef8100000000838161230457612303613b6d565b5b0492506020810190505b662386f26fc10000831061233d57662386f26fc10000838161233357612332613b6d565b5b0492506010810190505b6305f5e1008310612366576305f5e100838161235c5761235b613b6d565b5b0492506008810190505b612710831061238b57612710838161238157612380613b6d565b5b0492506004810190505b606483106123ae57606483816123a4576123a3613b6d565b5b0492506002810190505b600a83106123bd576001810190505b80915050919050565b805182511461241057815181516040517f5b059991000000000000000000000000000000000000000000000000000000008152600401612407929190613bcd565b60405180910390fd5b600061241a611dee565b905060005b835181101561262f57600061243d8286611f0290919063ffffffff16565b905060006124548386611f0290919063ffffffff16565b9050600073ffffffffffffffffffffffffffffffffffffffff168873ffffffffffffffffffffffffffffffffffffffff161461258157600080600084815260200190815260200160002060008a73ffffffffffffffffffffffffffffffffffffffff1673ffffffffffffffffffffffffffffffffffffffff1681526020019081526020016000205490508181101561252957888183856040517f03dee4c50000000000000000000000000000000000000000000000000000000081526004016125209493929190614255565b60405180910390fd5b81810360008085815260200190815260200160002060008b73ffffffffffffffffffffffffffffffffffffffff1673ffffffffffffffffffffffffffffffffffffffff16815260200190815260200160002081905550505b600073ffffffffffffffffffffffffffffffffffffffff168773ffffffffffffffffffffffffffffffffffffffff161461261c578060008084815260200190815260200160002060008973ffffffffffffffffffffffffffffffffffffffff1673ffffffffffffffffffffffffffffffffffffffff168152602001908152602001600020600082825461261491906140bc565b925050819055505b50508061262890613b25565b905061241f565b5060018351036126ee57600061264f600085611f0290919063ffffffff16565b90506000612667600085611f0290919063ffffffff16565b90508573ffffffffffffffffffffffffffffffffffffffff168773ffffffffffffffffffffffffffffffffffffffff168473ffffffffffffffffffffffffffffffffffffffff167fc3d58168c5ae7397731d063d5bbf3d657854427343f4c083240f7aacaa2d0f6285856040516126df929190613bcd565b60405180910390a4505061276d565b8373ffffffffffffffffffffffffffffffffffffffff168573ffffffffffffffffffffffffffffffffffffffff168273ffffffffffffffffffffffffffffffffffffffff167f4a39dc06d4c0dbc64b70af90fd698a233a518aa5d07e595d983b8c0526c8f7fb868660405161276492919061429a565b60405180910390a45b5050505050565b60008473ffffffffffffffffffffffffffffffffffffffff163b1115612920578373ffffffffffffffffffffffffffffffffffffffff1663f23a6e6187878686866040518663ffffffff1660e01b81526004016127d5959493929190614326565b6020604051808303816000875af192505050801561281157506040513d601f19601f8201168201806040525081019061280e9190614395565b60015b612895573d8060008114612841576040519150601f19603f3d011682016040523d82523d6000602084013e612846565b606091505b50600081510361288d57846040517f57f447ce0000000000000000000000000000000000000000000000000000000081526004016128849190613351565b60405180910390fd5b805181602001fd5b63f23a6e6160e01b7bffffffffffffffffffffffffffffffffffffffffffffffffffffffff1916817bffffffffffffffffffffffffffffffffffffffffffffffffffffffff19161461291e57846040517f57f447ce0000000000000000000000000000000000000000000000000000000081526004016129159190613351565b60405180910390fd5b505b505050505050565b60008473ffffffffffffffffffffffffffffffffffffffff163b1115612ad4578373ffffffffffffffffffffffffffffffffffffffff1663bc197c8187878686866040518663ffffffff1660e01b81526004016129899594939291906143c2565b6020604051808303816000875af19250505080156129c557506040513d601f19601f820116820180604052508101906129c29190614395565b60015b612a49573d80600081146129f5576040519150601f19603f3d011682016040523d82523d6000602084013e6129fa565b606091505b506000815103612a4157846040517f57f447ce000000000000000000000000000000000000000000000000000000008152600401612a389190613351565b60405180910390fd5b805181602001fd5b63bc197c8160e01b7bffffffffffffffffffffffffffffffffffffffffffffffffffffffff1916817bffffffffffffffffffffffffffffffffffffffffffffffffffffffff191614612ad257846040517f57f447ce000000000000000000000000000000000000000000000000000000008152600401612ac99190613351565b60405180910390fd5b505b505050505050565b6000604051905090565b600080fd5b600080fd5b600073ffffffffffffffffffffffffffffffffffffffff82169050919050565b6000612b1b82612af0565b9050919050565b612b2b81612b10565b8114612b3657600080fd5b50565b600081359050612b4881612b22565b92915050565b6000819050919050565b612b6181612b4e565b8114612b6c57600080fd5b50565b600081359050612b7e81612b58565b92915050565b60008060408385031215612b9b57612b9a612ae6565b5b6000612ba985828601612b39565b9250506020612bba85828601612b6f565b9150509250929050565b612bcd81612b4e565b82525050565b6000602082019050612be86000830184612bc4565b92915050565b60007fffffffff0000000000000000000000000000000000000000000000000000000082169050919050565b612c2381612bee565b8114612c2e57600080fd5b50565b600081359050612c4081612c1a565b92915050565b600060208284031215612c5c57612c5b612ae6565b5b6000612c6a84828501612c31565b91505092915050565b60008115159050919050565b612c8881612c73565b82525050565b6000602082019050612ca36000830184612c7f565b92915050565b600060208284031215612cbf57612cbe612ae6565b5b6000612ccd84828501612b6f565b91505092915050565b600081519050919050565b600082825260208201905092915050565b60005b83811015612d10578082015181840152602081019050612cf5565b60008484015250505050565b6000601f19601f8301169050919050565b6000612d3882612cd6565b612d428185612ce1565b9350612d52818560208601612cf2565b612d5b81612d1c565b840191505092915050565b60006020820190508181036000830152612d808184612d2d565b905092915050565b60008060408385031215612d9f57612d9e612ae6565b5b6000612dad85828601612b6f565b9250506020612dbe85828601612b39565b9150509250929050565b600080600060608486031215612de157612de0612ae6565b5b6000612def86828701612b6f565b9350506020612e0086828701612b6f565b9250506040612e1186828701612b6f565b9150509250925092565b600080fd5b7f4e487b7100000000000000000000000000000000000000000000000000000000600052604160045260246000fd5b612e5882612d1c565b810181811067ffffffffffffffff82111715612e7757612e76612e20565b5b80604052505050565b6000612e8a612adc565b9050612e968282612e4f565b919050565b600067ffffffffffffffff821115612eb657612eb5612e20565b5b602082029050602081019050919050565b600080fd5b6000612edf612eda84612e9b565b612e80565b90508083825260208201905060208402830185811115612f0257612f01612ec7565b5b835b81811015612f2b5780612f178882612b6f565b845260208401935050602081019050612f04565b5050509392505050565b600082601f830112612f4a57612f49612e1b565b5b8135612f5a848260208601612ecc565b91505092915050565b600080fd5b600067ffffffffffffffff821115612f8357612f82612e20565b5b612f8c82612d1c565b9050602081019050919050565b82818337600083830152505050565b6000612fbb612fb684612f68565b612e80565b905082815260208101848484011115612fd757612fd6612f63565b5b612fe2848285612f99565b509392505050565b600082601f830112612fff57612ffe612e1b565b5b813561300f848260208601612fa8565b91505092915050565b600080600080600060a0868803121561303457613033612ae6565b5b600061304288828901612b39565b955050602061305388828901612b39565b945050604086013567ffffffffffffffff81111561307457613073612aeb565b5b61308088828901612f35565b935050606086013567ffffffffffffffff8111156130a1576130a0612aeb565b5b6130ad88828901612f35565b925050608086013567ffffffffffffffff8111156130ce576130cd612aeb565b5b6130da88828901612fea565b9150509295509295909350565b600067ffffffffffffffff82111561310257613101612e20565b5b602082029050602081019050919050565b6000613126613121846130e7565b612e80565b9050808382526020820190506020840283018581111561314957613148612ec7565b5b835b81811015613172578061315e8882612b39565b84526020840193505060208101905061314b565b5050509392505050565b600082601f83011261319157613190612e1b565b5b81356131a1848260208601613113565b91505092915050565b600080604083850312156131c1576131c0612ae6565b5b600083013567ffffffffffffffff8111156131df576131de612aeb565b5b6131eb8582860161317c565b925050602083013567ffffffffffffffff81111561320c5761320b612aeb565b5b61321885828601612f35565b9150509250929050565b600081519050919050565b600082825260208201905092915050565b6000819050602082019050919050565b61325781612b4e565b82525050565b6000613269838361324e565b60208301905092915050565b6000602082019050919050565b600061328d82613222565b613297818561322d565b93506132a28361323e565b8060005b838110156132d35781516132ba888261325d565b97506132c583613275565b9250506001810190506132a6565b5085935050505092915050565b600060208201905081810360008301526132fa8184613282565b905092915050565b6000806040838503121561331957613318612ae6565b5b600061332785828601612b6f565b925050602061333885828601612b6f565b9150509250929050565b61334b81612b10565b82525050565b60006020820190506133666000830184613342565b92915050565b61337581612c73565b811461338057600080fd5b50565b6000813590506133928161336c565b92915050565b600080604083850312156133af576133ae612ae6565b5b60006133bd85828601612b39565b92505060206133ce85828601613383565b9150509250929050565b6000610160820190506133ee600083018e612bc4565b8181036020830152613400818d612d2d565b905061340f604083018c613342565b61341c606083018b612bc4565b613429608083018a612bc4565b61343660a0830189612bc4565b61344360c0830188612bc4565b61345060e0830187612c7f565b61345e610100830186612c7f565b61346c610120830185612bc4565b61347a610140830184612bc4565b9c9b505050505050505050505050565b600080604083850312156134a1576134a0612ae6565b5b60006134af85828601612b39565b92505060206134c085828601612b39565b9150509250929050565b600080600080600060a086880312156134e6576134e5612ae6565b5b60006134f488828901612b39565b955050602061350588828901612b39565b945050604061351688828901612b6f565b935050606061352788828901612b6f565b925050608086013567ffffffffffffffff81111561354857613547612aeb565b5b61355488828901612fea565b9150509295509295909350565b7f4e6f7420746865206f776e657200000000000000000000000000000000000000600082015250565b6000613597600d83612ce1565b91506135a282613561565b602082019050919050565b600060208201905081810360008301526135c68161358a565b9050919050565b7f536f6e6720697320616c72656164792072656c65617365640000000000000000600082015250565b6000613603601883612ce1565b915061360e826135cd565b602082019050919050565b60006020820190508181036000830152613632816135f6565b9050919050565b7f4e487b7100000000000000000000000000000000000000000000000000000000600052602260045260246000fd5b6000600282049050600182168061368057607f821691505b60208210810361369357613692613639565b5b50919050565b7f4e6f2066756e647320746f207769746864726177000000000000000000000000600082015250565b60006136cf601483612ce1565b91506136da82613699565b602082019050919050565b600060208201905081810360008301526136fe816136c2565b9050919050565b600081905092915050565b7f68747470733a2f2f61707269636f742d61646f7261626c652d62757a7a61726460008201527f2d3638352e6d7970696e6174612e636c6f75642f697066732f516d616659565260208201527f4d613961576a32515a414359655566624458747472795335537964617a64696a60408201527f58634e56666d732f000000000000000000000000000000000000000000000000606082015250565b60006137b8606883613705565b91506137c382613710565b606882019050919050565b60006137d982612cd6565b6137e38185613705565b93506137f3818560208601612cf2565b80840191505092915050565b7f2e6a736f6e000000000000000000000000000000000000000000000000000000600082015250565b6000613835600583613705565b9150613840826137ff565b600582019050919050565b6000613856826137ab565b915061386282846137ce565b915061386d82613828565b915081905092915050565b60008190508160005260206000209050919050565b60006020601f8301049050919050565b600082821b905092915050565b6000600883026138da7fffffffffffffffffffffffffffffffffffffffffffffffffffffffffffffffff8261389d565b6138e4868361389d565b95508019841693508086168417925050509392505050565b6000819050919050565b600061392161391c61391784612b4e565b6138fc565b612b4e565b9050919050565b6000819050919050565b61393b83613906565b61394f61394782613928565b8484546138aa565b825550505050565b600090565b613964613957565b61396f818484613932565b505050565b5b818110156139935761398860008261395c565b600181019050613975565b5050565b601f8211156139d8576139a981613878565b6139b28461388d565b810160208510156139c1578190505b6139d56139cd8561388d565b830182613974565b50505b505050565b600082821c905092915050565b60006139fb600019846008026139dd565b1980831691505092915050565b6000613a1483836139ea565b9150826002028217905092915050565b613a2d82612cd6565b67ffffffffffffffff811115613a4657613a45612e20565b5b613a508254613668565b613a5b828285613997565b600060209050601f831160018114613a8e5760008415613a7c578287015190505b613a868582613a08565b865550613aee565b601f198416613a9c86613878565b60005b82811015613ac457848901518255600182019150602085019450602081019050613a9f565b86831015613ae15784890151613add601f8916826139ea565b8355505b6001600288020188555050505b505050505050565b7f4e487b7100000000000000000000000000000000000000000000000000000000600052601160045260246000fd5b6000613b3082612b4e565b91507fffffffffffffffffffffffffffffffffffffffffffffffffffffffffffffffff8203613b6257613b61613af6565b5b600182019050919050565b7f4e487b7100000000000000000000000000000000000000000000000000000000600052601260045260246000fd5b6000613ba782612b4e565b9150613bb283612b4e565b925082613bc257613bc1613b6d565b5b828204905092915050565b6000604082019050613be26000830185612bc4565b613bef6020830184612bc4565b9392505050565b6000604082019050613c0b6000830185613342565b613c186020830184613342565b9392505050565b7f536f6e67206e6f742072656c6561736564207965740000000000000000000000600082015250565b6000613c55601583612ce1565b9150613c6082613c1f565b602082019050919050565b60006020820190508181036000830152613c8481613c48565b9050919050565b7f4e487b7100000000000000000000000000000000000000000000000000000000600052603260045260246000fd5b6000613cc582612b4e565b9150613cd083612b4e565b9250828202613cde81612b4e565b91508282048414831517613cf557613cf4613af6565b5b5092915050565b7f536f6e67206d7573742062652072656c656173656420746f206469737472696260008201527f75746520726576656e7565000000000000000000000000000000000000000000602082015250565b6000613d58602b83612ce1565b9150613d6382613cfc565b604082019050919050565b60006020820190508181036000830152613d8781613d4b565b9050919050565b7f4e6f2066756e647320617661696c61626c6520666f722064697374726962757460008201527f696f6e0000000000000000000000000000000000000000000000000000000000602082015250565b6000613dea602383612ce1565b9150613df582613d8e565b604082019050919050565b60006020820190508181036000830152613e1981613ddd565b9050919050565b7f4e6f206672616374696f6e7320736f6c64000000000000000000000000000000600082015250565b6000613e56601183612ce1565b9150613e6182613e20565b602082019050919050565b60006020820190508181036000830152613e8581613e49565b9050919050565b6000613e9782612b4e565b9150613ea283612b4e565b9250828203905081811115613eba57613eb9613af6565b5b92915050565b7f546f6b656e20697320736f6c64206f7574000000000000000000000000000000600082015250565b6000613ef6601183612ce1565b9150613f0182613ec0565b602082019050919050565b60006020820190508181036000830152613f2581613ee9565b9050919050565b7f4e6f206672616374696f6e616c206f776e65727368697020617661696c61626c60008201527f6500000000000000000000000000000000000000000000000000000000000000602082015250565b6000613f88602183612ce1565b9150613f9382613f2c565b604082019050919050565b60006020820190508181036000830152613fb781613f7b565b9050919050565b7f4e6f7420656e6f756768206672616374696f6e616c206f776e6572736869702060008201527f617661696c61626c650000000000000000000000000000000000000000000000602082015250565b600061401a602983612ce1565b915061402582613fbe565b604082019050919050565b600060208201905081810360008301526140498161400d565b9050919050565b7f496e636f727265637420616d6f756e74206f66204554482073656e7400000000600082015250565b6000614086601c83612ce1565b915061409182614050565b602082019050919050565b600060208201905081810360008301526140b581614079565b9050919050565b60006140c782612b4e565b91506140d283612b4e565b92508282019050808211156140ea576140e9613af6565b5b92915050565b60006140fb82612b4e565b91506000820361410e5761410d613af6565b5b600182039050919050565b6000819050919050565b600061413e61413961413484614119565b6138fc565b612b4e565b9050919050565b61414e81614123565b82525050565b60006040820190506141696000830185614145565b6141766020830184612bc4565b9392505050565b7f4e465420646f6573206e6f742065786973740000000000000000000000000000600082015250565b60006141b3601283612ce1565b91506141be8261417d565b602082019050919050565b600060208201905081810360008301526141e2816141a6565b9050919050565b7f4e6f2066756e64732070726f7669646564000000000000000000000000000000600082015250565b600061421f601183612ce1565b915061422a826141e9565b602082019050919050565b6000602082019050818103600083015261424e81614212565b9050919050565b600060808201905061426a6000830187613342565b6142776020830186612bc4565b6142846040830185612bc4565b6142916060830184612bc4565b95945050505050565b600060408201905081810360008301526142b48185613282565b905081810360208301526142c88184613282565b90509392505050565b600081519050919050565b600082825260208201905092915050565b60006142f8826142d1565b61430281856142dc565b9350614312818560208601612cf2565b61431b81612d1c565b840191505092915050565b600060a08201905061433b6000830188613342565b6143486020830187613342565b6143556040830186612bc4565b6143626060830185612bc4565b818103608083015261437481846142ed565b90509695505050505050565b60008151905061438f81612c1a565b92915050565b6000602082840312156143ab576143aa612ae6565b5b60006143b984828501614380565b91505092915050565b600060a0820190506143d76000830188613342565b6143e46020830187613342565b81810360408301526143f68186613282565b9050818103606083015261440a8185613282565b9050818103608083015261441e81846142ed565b9050969550505050505056fea2646970667358221220915111edbb5804245f32c6d804089d414780a434fbb5fd822806ff0ff632430b64736f6c6343000814003368747470733a2f2f61707269636f742d61646f7261626c652d62757a7a6172642d3638352e6d7970696e6174612e636c6f75642f697066732f516d61665956524d613961576a32515a414359655566624458747472795335537964617a64696a58634e56666d732f",
  "linkReferences": {},
  "deployedLinkReferences": {}
}