{
  "_format": "hh-sol-artifact-1",
  "contractName": "Fein",
  "sourceName": "src/web3_contracts/contracts/Fein.sol",
  "abi": [
    {
      "inputs": [],
      "stateMutability": "nonpayable",
      "type": "constructor"
    },
    {
      "inputs": [
        {
          "internalType": "address",
          "name": "sender",
          "type": "address"
        },
        {
          "internalType": "uint256",
          "name": "balance",
          "type": "uint256"
        },
        {
          "internalType": "uint256",
          "name": "needed",
          "type": "uint256"
        },
        {
          "internalType": "uint256",
          "name": "tokenId",
          "type": "uint256"
        }
      ],
      "name": "ERC1155InsufficientBalance",
      "type": "error"
    },
    {
      "inputs": [
        {
          "internalType": "address",
          "name": "approver",
          "type": "address"
        }
      ],
      "name": "ERC1155InvalidApprover",
      "type": "error"
    },
    {
      "inputs": [
        {
          "internalType": "uint256",
          "name": "idsLength",
          "type": "uint256"
        },
        {
          "internalType": "uint256",
          "name": "valuesLength",
          "type": "uint256"
        }
      ],
      "name": "ERC1155InvalidArrayLength",
      "type": "error"
    },
    {
      "inputs": [
        {
          "internalType": "address",
          "name": "operator",
          "type": "address"
        }
      ],
      "name": "ERC1155InvalidOperator",
      "type": "error"
    },
    {
      "inputs": [
        {
          "internalType": "address",
          "name": "receiver",
          "type": "address"
        }
      ],
      "name": "ERC1155InvalidReceiver",
      "type": "error"
    },
    {
      "inputs": [
        {
          "internalType": "address",
          "name": "sender",
          "type": "address"
        }
      ],
      "name": "ERC1155InvalidSender",
      "type": "error"
    },
    {
      "inputs": [
        {
          "internalType": "address",
          "name": "operator",
          "type": "address"
        },
        {
          "internalType": "address",
          "name": "owner",
          "type": "address"
        }
      ],
      "name": "ERC1155MissingApprovalForAll",
      "type": "error"
    },
    {
      "anonymous": false,
      "inputs": [
        {
          "indexed": true,
          "internalType": "address",
          "name": "account",
          "type": "address"
        },
        {
          "indexed": true,
          "internalType": "address",
          "name": "operator",
          "type": "address"
        },
        {
          "indexed": false,
          "internalType": "bool",
          "name": "approved",
          "type": "bool"
        }
      ],
      "name": "ApprovalForAll",
      "type": "event"
    },
    {
      "anonymous": false,
      "inputs": [
        {
          "indexed": true,
          "internalType": "uint256",
          "name": "tokenId",
          "type": "uint256"
        },
        {
          "indexed": false,
          "internalType": "uint256",
          "name": "amount",
          "type": "uint256"
        }
      ],
      "name": "FundsAdded",
      "type": "event"
    },
    {
      "anonymous": false,
      "inputs": [
        {
          "indexed": true,
          "internalType": "uint256",
          "name": "tokenId",
          "type": "uint256"
        },
        {
          "indexed": true,
          "internalType": "address",
          "name": "creator",
          "type": "address"
        },
        {
          "indexed": false,
          "internalType": "uint256",
          "name": "totalSupply",
          "type": "uint256"
        },
        {
          "indexed": false,
          "internalType": "uint256",
          "name": "totalFractionalAmount",
          "type": "uint256"
        }
      ],
      "name": "NFTMinted",
      "type": "event"
    },
    {
      "anonymous": false,
      "inputs": [
        {
          "indexed": true,
          "internalType": "uint256",
          "name": "tokenId",
          "type": "uint256"
        },
        {
          "indexed": false,
          "internalType": "uint256",
          "name": "amount",
          "type": "uint256"
        }
      ],
      "name": "RevenueDistributed",
      "type": "event"
    },
    {
      "anonymous": false,
      "inputs": [
        {
          "indexed": true,
          "internalType": "uint256",
          "name": "tokenId",
          "type": "uint256"
        },
        {
          "indexed": true,
          "internalType": "address",
          "name": "buyer",
          "type": "address"
        },
        {
          "indexed": false,
          "internalType": "uint256",
          "name": "tokensPurchased",
          "type": "uint256"
        },
        {
          "indexed": false,
          "internalType": "uint256",
          "name": "amountPaid",
          "type": "uint256"
        }
      ],
      "name": "StakePurchased",
      "type": "event"
    },
    {
      "anonymous": false,
      "inputs": [
        {
          "indexed": true,
          "internalType": "address",
          "name": "operator",
          "type": "address"
        },
        {
          "indexed": true,
          "internalType": "address",
          "name": "from",
          "type": "address"
        },
        {
          "indexed": true,
          "internalType": "address",
          "name": "to",
          "type": "address"
        },
        {
          "indexed": false,
          "internalType": "uint256[]",
          "name": "ids",
          "type": "uint256[]"
        },
        {
          "indexed": false,
          "internalType": "uint256[]",
          "name": "values",
          "type": "uint256[]"
        }
      ],
      "name": "TransferBatch",
      "type": "event"
    },
    {
      "anonymous": false,
      "inputs": [
        {
          "indexed": true,
          "internalType": "address",
          "name": "operator",
          "type": "address"
        },
        {
          "indexed": true,
          "internalType": "address",
          "name": "from",
          "type": "address"
        },
        {
          "indexed": true,
          "internalType": "address",
          "name": "to",
          "type": "address"
        },
        {
          "indexed": false,
          "internalType": "uint256",
          "name": "id",
          "type": "uint256"
        },
        {
          "indexed": false,
          "internalType": "uint256",
          "name": "value",
          "type": "uint256"
        }
      ],
      "name": "TransferSingle",
      "type": "event"
    },
    {
      "anonymous": false,
      "inputs": [
        {
          "indexed": false,
          "internalType": "string",
          "name": "value",
          "type": "string"
        },
        {
          "indexed": true,
          "internalType": "uint256",
          "name": "id",
          "type": "uint256"
        }
      ],
      "name": "URI",
      "type": "event"
    },
    {
      "stateMutability": "payable",
      "type": "fallback"
    },
    {
      "inputs": [
        {
          "internalType": "uint256",
          "name": "tokenId",
          "type": "uint256"
        }
      ],
      "name": "addRevenueGen",
      "outputs": [],
      "stateMutability": "payable",
      "type": "function"
    },
    {
      "inputs": [
        {
          "internalType": "uint256",
          "name": "tokenId",
          "type": "uint256"
        }
      ],
      "name": "artistTokenSales",
      "outputs": [],
      "stateMutability": "payable",
      "type": "function"
    },
    {
      "inputs": [
        {
          "internalType": "address",
          "name": "account",
          "type": "address"
        },
        {
          "internalType": "uint256",
          "name": "id",
          "type": "uint256"
        }
      ],
      "name": "balanceOf",
      "outputs": [
        {
          "internalType": "uint256",
          "name": "",
          "type": "uint256"
        }
      ],
      "stateMutability": "view",
      "type": "function"
    },
    {
      "inputs": [
        {
          "internalType": "address[]",
          "name": "accounts",
          "type": "address[]"
        },
        {
          "internalType": "uint256[]",
          "name": "ids",
          "type": "uint256[]"
        }
      ],
      "name": "balanceOfBatch",
      "outputs": [
        {
          "internalType": "uint256[]",
          "name": "",
          "type": "uint256[]"
        }
      ],
      "stateMutability": "view",
      "type": "function"
    },
    {
      "inputs": [
        {
          "internalType": "uint256",
          "name": "tokenId",
          "type": "uint256"
        }
      ],
      "name": "buyStake",
      "outputs": [],
      "stateMutability": "payable",
      "type": "function"
    },
    {
      "inputs": [],
      "name": "contractOwner",
      "outputs": [
        {
          "internalType": "address",
          "name": "",
          "type": "address"
        }
      ],
      "stateMutability": "view",
      "type": "function"
    },
    {
      "inputs": [],
      "name": "currentTokenID",
      "outputs": [
        {
          "internalType": "uint256",
          "name": "",
          "type": "uint256"
        }
      ],
      "stateMutability": "view",
      "type": "function"
    },
    {
      "inputs": [
        {
          "internalType": "uint256",
          "name": "tokenId",
          "type": "uint256"
        }
      ],
      "name": "distributeRevenue",
      "outputs": [],
      "stateMutability": "payable",
      "type": "function"
    },
    {
      "inputs": [
        {
          "internalType": "uint256",
          "name": "",
          "type": "uint256"
        },
        {
          "internalType": "address",
          "name": "",
          "type": "address"
        }
      ],
      "name": "fractionalOwnership",
      "outputs": [
        {
          "internalType": "uint256",
          "name": "",
          "type": "uint256"
        }
      ],
      "stateMutability": "view",
      "type": "function"
    },
    {
      "inputs": [
        {
          "internalType": "uint256",
          "name": "_tokenid",
          "type": "uint256"
        }
      ],
      "name": "geturi",
      "outputs": [
        {
          "internalType": "string",
          "name": "",
          "type": "string"
        }
      ],
      "stateMutability": "view",
      "type": "function"
    },
    {
      "inputs": [
        {
          "internalType": "address",
          "name": "account",
          "type": "address"
        },
        {
          "internalType": "address",
          "name": "operator",
          "type": "address"
        }
      ],
      "name": "isApprovedForAll",
      "outputs": [
        {
          "internalType": "bool",
          "name": "",
          "type": "bool"
        }
      ],
      "stateMutability": "view",
      "type": "function"
    },
    {
      "inputs": [
        {
          "internalType": "uint256",
          "name": "_totalSupply",
          "type": "uint256"
        },
        {
          "internalType": "uint256",
          "name": "_totalFractionalAmount",
          "type": "uint256"
        },
        {
          "internalType": "uint256",
          "name": "_percentageShare",
          "type": "uint256"
        }
      ],
      "name": "mintNFT",
      "outputs": [],
      "stateMutability": "nonpayable",
      "type": "function"
    },
    {
      "inputs": [
        {
          "internalType": "uint256",
          "name": "",
          "type": "uint256"
        },
        {
          "internalType": "uint256",
          "name": "",
          "type": "uint256"
        }
      ],
      "name": "participants",
      "outputs": [
        {
          "internalType": "address",
          "name": "",
          "type": "address"
        }
      ],
      "stateMutability": "view",
      "type": "function"
    },
    {
      "inputs": [
        {
          "internalType": "uint256",
          "name": "tokenId",
          "type": "uint256"
        }
      ],
      "name": "releaseSong",
      "outputs": [],
      "stateMutability": "nonpayable",
      "type": "function"
    },
    {
      "inputs": [
        {
          "internalType": "address",
          "name": "from",
          "type": "address"
        },
        {
          "internalType": "address",
          "name": "to",
          "type": "address"
        },
        {
          "internalType": "uint256[]",
          "name": "ids",
          "type": "uint256[]"
        },
        {
          "internalType": "uint256[]",
          "name": "values",
          "type": "uint256[]"
        },
        {
          "internalType": "bytes",
          "name": "data",
          "type": "bytes"
        }
      ],
      "name": "safeBatchTransferFrom",
      "outputs": [],
      "stateMutability": "nonpayable",
      "type": "function"
    },
    {
      "inputs": [
        {
          "internalType": "address",
          "name": "from",
          "type": "address"
        },
        {
          "internalType": "address",
          "name": "to",
          "type": "address"
        },
        {
          "internalType": "uint256",
          "name": "id",
          "type": "uint256"
        },
        {
          "internalType": "uint256",
          "name": "value",
          "type": "uint256"
        },
        {
          "internalType": "bytes",
          "name": "data",
          "type": "bytes"
        }
      ],
      "name": "safeTransferFrom",
      "outputs": [],
      "stateMutability": "nonpayable",
      "type": "function"
    },
    {
      "inputs": [
        {
          "internalType": "address",
          "name": "operator",
          "type": "address"
        },
        {
          "internalType": "bool",
          "name": "approved",
          "type": "bool"
        }
      ],
      "name": "setApprovalForAll",
      "outputs": [],
      "stateMutability": "nonpayable",
      "type": "function"
    },
    {
      "inputs": [
        {
          "internalType": "bytes4",
          "name": "interfaceId",
          "type": "bytes4"
        }
      ],
      "name": "supportsInterface",
      "outputs": [
        {
          "internalType": "bool",
          "name": "",
          "type": "bool"
        }
      ],
      "stateMutability": "view",
      "type": "function"
    },
    {
      "inputs": [
        {
          "internalType": "uint256",
          "name": "",
          "type": "uint256"
        }
      ],
      "name": "tokenData",
      "outputs": [
        {
          "internalType": "uint256",
          "name": "tokenSupply",
          "type": "uint256"
        },
        {
          "internalType": "string",
          "name": "uri",
          "type": "string"
        },
        {
          "internalType": "address",
          "name": "creator",
          "type": "address"
        },
        {
          "internalType": "uint256",
          "name": "countoftotalsupply",
          "type": "uint256"
        },
        {
          "internalType": "uint256",
          "name": "fundsCollected",
          "type": "uint256"
        },
        {
          "internalType": "uint256",
          "name": "revenue",
          "type": "uint256"
        },
        {
          "internalType": "uint256",
          "name": "totalFractionalAmount",
          "type": "uint256"
        },
        {
          "internalType": "bool",
          "name": "soldOut",
          "type": "bool"
        },
        {
          "internalType": "bool",
          "name": "isReleased",
          "type": "bool"
        },
        {
          "internalType": "uint256",
          "name": "percentageShare",
          "type": "uint256"
        }
      ],
      "stateMutability": "view",
      "type": "function"
    },
    {
      "inputs": [
        {
          "internalType": "uint256",
          "name": "",
          "type": "uint256"
        }
      ],
      "name": "uri",
      "outputs": [
        {
          "internalType": "string",
          "name": "",
          "type": "string"
        }
      ],
      "stateMutability": "view",
      "type": "function"
    },
    {
      "inputs": [
        {
          "internalType": "uint256",
          "name": "tokenId",
          "type": "uint256"
        }
      ],
      "name": "withdrawFunds",
      "outputs": [],
      "stateMutability": "nonpayable",
      "type": "function"
    },
    {
      "stateMutability": "payable",
      "type": "receive"
    }
  ],
  "bytecode": "0x608060405260006003553480156200001657600080fd5b506040518060a00160405280606881526020016200482f6068913962000042816200008a60201b60201c565b5033600460006101000a81548173ffffffffffffffffffffffffffffffffffffffff021916908373ffffffffffffffffffffffffffffffffffffffff16021790555062000400565b80600290816200009b919062000319565b5050565b600081519050919050565b7f4e487b7100000000000000000000000000000000000000000000000000000000600052604160045260246000fd5b7f4e487b7100000000000000000000000000000000000000000000000000000000600052602260045260246000fd5b600060028204905060018216806200012157607f821691505b602082108103620001375762000136620000d9565b5b50919050565b60008190508160005260206000209050919050565b60006020601f8301049050919050565b600082821b905092915050565b600060088302620001a17fffffffffffffffffffffffffffffffffffffffffffffffffffffffffffffffff8262000162565b620001ad868362000162565b95508019841693508086168417925050509392505050565b6000819050919050565b6000819050919050565b6000620001fa620001f4620001ee84620001c5565b620001cf565b620001c5565b9050919050565b6000819050919050565b6200021683620001d9565b6200022e620002258262000201565b8484546200016f565b825550505050565b600090565b6200024562000236565b620002528184846200020b565b505050565b5b818110156200027a576200026e6000826200023b565b60018101905062000258565b5050565b601f821115620002c95762000293816200013d565b6200029e8462000152565b81016020851015620002ae578190505b620002c6620002bd8562000152565b83018262000257565b50505b505050565b600082821c905092915050565b6000620002ee60001984600802620002ce565b1980831691505092915050565b6000620003098383620002db565b9150826002028217905092915050565b62000324826200009f565b67ffffffffffffffff81111562000340576200033f620000aa565b5b6200034c825462000108565b620003598282856200027e565b600060209050601f8311600181146200039157600084156200037c578287015190505b620003888582620002fb565b865550620003f8565b601f198416620003a1866200013d565b60005b82811015620003cb57848901518255600182019150602085019450602081019050620003a4565b86831015620003eb5784890151620003e7601f891682620002db565b8355505b6001600288020188555050505b505050505050565b61441f80620004106000396000f3fe60806040526004361061012d5760003560e01c806359fde1e0116100ab578063bb62115e1161006f578063bb62115e1461040b578063c693846214610436578063ce606ee014610473578063d2facde11461049e578063e985e9c5146104ba578063f242432a146104f757610134565b806359fde1e01461032757806381fb1fb414610343578063a22cb46514610380578063b4b5b48f146103a9578063b9d2b803146103ef57610134565b806317c6ab40116100f257806317c6ab401461023f5780631d50869d1461027c5780632eb2c2d6146102a55780634dc70474146102ce5780634e1273f4146102ea57610134565b8062fdd58e1461013657806301ffc9a71461017357806303c67a45146101b05780630e89341c146101d9578063155dd5ee1461021657610134565b3661013457005b005b34801561014257600080fd5b5061015d60048036038101906101589190612b52565b610520565b60405161016a9190612ba1565b60405180910390f35b34801561017f57600080fd5b5061019a60048036038101906101959190612c14565b61057a565b6040516101a79190612c5c565b60405180910390f35b3480156101bc57600080fd5b506101d760048036038101906101d29190612c77565b61065c565b005b3480156101e557600080fd5b5061020060048036038101906101fb9190612c77565b610788565b60405161020d9190612d34565b60405180910390f35b34801561022257600080fd5b5061023d60048036038101906102389190612c77565b61081c565b005b34801561024b57600080fd5b5061026660048036038101906102619190612d56565b610977565b6040516102739190612ba1565b60405180910390f35b34801561028857600080fd5b506102a3600480360381019061029e9190612d96565b61099c565b005b3480156102b157600080fd5b506102cc60048036038101906102c79190612fe6565b610bb3565b005b6102e860048036038101906102e39190612c77565b610c5b565b005b3480156102f657600080fd5b50610311600480360381019061030c9190613178565b610deb565b60405161031e91906132ae565b60405180910390f35b610341600480360381019061033c9190612c77565b610efa565b005b34801561034f57600080fd5b5061036a600480360381019061036591906132d0565b61130b565b604051610377919061331f565b60405180910390f35b34801561038c57600080fd5b506103a760048036038101906103a29190613366565b611359565b005b3480156103b557600080fd5b506103d060048036038101906103cb9190612c77565b61136f565b6040516103e69a999897969594939291906133a6565b60405180910390f35b61040960048036038101906104049190612c77565b611485565b005b34801561041757600080fd5b50610420611847565b60405161042d9190612ba1565b60405180910390f35b34801561044257600080fd5b5061045d60048036038101906104589190612c77565b61184d565b60405161046a9190612d34565b60405180910390f35b34801561047f57600080fd5b506104886118f5565b604051610495919061331f565b60405180910390f35b6104b860048036038101906104b39190612c77565b61191b565b005b3480156104c657600080fd5b506104e160048036038101906104dc9190613449565b611aaf565b6040516104ee9190612c5c565b60405180910390f35b34801561050357600080fd5b5061051e60048036038101906105199190613489565b611b43565b005b600080600083815260200190815260200160002060008473ffffffffffffffffffffffffffffffffffffffff1673ffffffffffffffffffffffffffffffffffffffff16815260200190815260200160002054905092915050565b60007fd9b67a26000000000000000000000000000000000000000000000000000000007bffffffffffffffffffffffffffffffffffffffffffffffffffffffff1916827bffffffffffffffffffffffffffffffffffffffffffffffffffffffff1916148061064557507f0e89341c000000000000000000000000000000000000000000000000000000007bffffffffffffffffffffffffffffffffffffffffffffffffffffffff1916827bffffffffffffffffffffffffffffffffffffffffffffffffffffffff1916145b80610655575061065482611beb565b5b9050919050565b600460009054906101000a900473ffffffffffffffffffffffffffffffffffffffff1673ffffffffffffffffffffffffffffffffffffffff163373ffffffffffffffffffffffffffffffffffffffff16146106ec576040517f08c379a00000000000000000000000000000000000000000000000000000000081526004016106e39061356c565b60405180910390fd5b600015156005600083815260200190815260200160002060070160019054906101000a900460ff16151514610756576040517f08c379a000000000000000000000000000000000000000000000000000000000815260040161074d906135d8565b60405180910390fd5b60016005600083815260200190815260200160002060070160016101000a81548160ff02191690831515021790555050565b60606002805461079790613627565b80601f01602080910402602001604051908101604052809291908181526020018280546107c390613627565b80156108105780601f106107e557610100808354040283529160200191610810565b820191906000526020600020905b8154815290600101906020018083116107f357829003601f168201915b50505050509050919050565b600460009054906101000a900473ffffffffffffffffffffffffffffffffffffffff1673ffffffffffffffffffffffffffffffffffffffff163373ffffffffffffffffffffffffffffffffffffffff16146108ac576040517f08c379a00000000000000000000000000000000000000000000000000000000081526004016108a39061356c565b60405180910390fd5b6000600560008381526020019081526020016000206005015490506000811161090a576040517f08c379a0000000000000000000000000000000000000000000000000000000008152600401610901906136a4565b60405180910390fd5b600460009054906101000a900473ffffffffffffffffffffffffffffffffffffffff1673ffffffffffffffffffffffffffffffffffffffff166108fc829081150290604051600060405180830381858888f19350505050158015610972573d6000803e3d6000fd5b505050565b6007602052816000526040600020602052806000526040600020600091509150505481565b600060035490506109be33828660405180602001604052806000815250611c55565b6109c781611cee565b6040516020016109d7919061380a565b604051602081830303815290604052600560008381526020019081526020016000206001019081610a0891906139e3565b50836005600083815260200190815260200160002060000181905550836005600083815260200190815260200160002060030181905550336005600083815260200190815260200160002060020160006101000a81548173ffffffffffffffffffffffffffffffffffffffff021916908373ffffffffffffffffffffffffffffffffffffffff1602179055508260056000838152602001908152602001600020600601819055506000600560008381526020019081526020016000206004018190555060036000815480929190610ade90613ae4565b919050555060006005600083815260200190815260200160002060070160006101000a81548160ff02191690831515021790555060006005600083815260200190815260200160002060070160016101000a81548160ff0219169083151502179055508160056000838152602001908152602001600020600801819055503373ffffffffffffffffffffffffffffffffffffffff16817f0713ae16a171f65c6877fd4bff12d9157605b607ef798a53c771cbadd0892ff48686604051610ba5929190613b2c565b60405180910390a350505050565b6000610bbd611dbc565b90508073ffffffffffffffffffffffffffffffffffffffff168673ffffffffffffffffffffffffffffffffffffffff1614158015610c025750610c008682611aaf565b155b15610c465780866040517fe237d922000000000000000000000000000000000000000000000000000000008152600401610c3d929190613b55565b60405180910390fd5b610c538686868686611dc4565b505050505050565b600460009054906101000a900473ffffffffffffffffffffffffffffffffffffffff1673ffffffffffffffffffffffffffffffffffffffff163373ffffffffffffffffffffffffffffffffffffffff1614610ceb576040517f08c379a0000000000000000000000000000000000000000000000000000000008152600401610ce29061356c565b60405180910390fd5b600115156005600083815260200190815260200160002060070160019054906101000a900460ff16151514610d55576040517f08c379a0000000000000000000000000000000000000000000000000000000008152600401610d4c90613bca565b60405180910390fd5b6005600082815260200190815260200160002060020160009054906101000a900473ffffffffffffffffffffffffffffffffffffffff1673ffffffffffffffffffffffffffffffffffffffff166108fc60056000848152602001908152602001600020600401549081150290604051600060405180830381858888f19350505050158015610de7573d6000803e3d6000fd5b5050565b60608151835114610e3757815183516040517f5b059991000000000000000000000000000000000000000000000000000000008152600401610e2e929190613b2c565b60405180910390fd5b6000835167ffffffffffffffff811115610e5457610e53612dee565b5b604051908082528060200260200182016040528015610e825781602001602082028036833780820191505090505b50905060005b8451811015610eef57610ebf610ea78287611ebc90919063ffffffff16565b610eba8387611ed090919063ffffffff16565b610520565b828281518110610ed257610ed1613bea565b5b60200260200101818152505080610ee890613ae4565b9050610e88565b508091505092915050565b600460009054906101000a900473ffffffffffffffffffffffffffffffffffffffff1673ffffffffffffffffffffffffffffffffffffffff163373ffffffffffffffffffffffffffffffffffffffff1614610f8a576040517f08c379a0000000000000000000000000000000000000000000000000000000008152600401610f819061356c565b60405180910390fd5b6000606460056000848152602001908152602001600020600801546005600085815260200190815260200160002060050154610fc69190613c19565b610fd09190613c8a565b9050600115156005600084815260200190815260200160002060070160019054906101000a900460ff1615151461103c576040517f08c379a000000000000000000000000000000000000000000000000000000000815260040161103390613d2d565b60405180910390fd5b6000811161107f576040517f08c379a000000000000000000000000000000000000000000000000000000000815260040161107690613dbf565b60405180910390fd5b600060056000848152602001908152602001600020600601549050600081116110dd576040517f08c379a00000000000000000000000000000000000000000000000000000000081526004016110d490613e2b565b60405180910390fd5b60005b600660008581526020019081526020016000208054905081101561122957600060066000868152602001908152602001600020828154811061112557611124613bea565b5b9060005260206000200160009054906101000a900473ffffffffffffffffffffffffffffffffffffffff16905060006007600087815260200190815260200160002060008373ffffffffffffffffffffffffffffffffffffffff1673ffffffffffffffffffffffffffffffffffffffff16815260200190815260200160002054905060008111156112145760008482876111bf9190613c19565b6111c99190613c8a565b90508273ffffffffffffffffffffffffffffffffffffffff166108fc829081150290604051600060405180830381858888f19350505050158015611211573d6000803e3d6000fd5b50505b5050808061122190613ae4565b9150506110e0565b50600082600560008681526020019081526020016000206005015461124e9190613e4b565b90506005600085815260200190815260200160002060020160009054906101000a900473ffffffffffffffffffffffffffffffffffffffff1673ffffffffffffffffffffffffffffffffffffffff166108fc829081150290604051600060405180830381858888f193505050501580156112cc573d6000803e3d6000fd5b50837ff2838e4b541f90d41a1076a560d75e948f7d1008e72118a655568626a30b451f846040516112fd9190612ba1565b60405180910390a250505050565b6006602052816000526040600020818154811061132757600080fd5b906000526020600020016000915091509054906101000a900473ffffffffffffffffffffffffffffffffffffffff1681565b61136b611364611dbc565b8383611ee4565b5050565b600560205280600052604060002060009150905080600001549080600101805461139890613627565b80601f01602080910402602001604051908101604052809291908181526020018280546113c490613627565b80156114115780601f106113e657610100808354040283529160200191611411565b820191906000526020600020905b8154815290600101906020018083116113f457829003601f168201915b5050505050908060020160009054906101000a900473ffffffffffffffffffffffffffffffffffffffff16908060030154908060040154908060050154908060060154908060070160009054906101000a900460ff16908060070160019054906101000a900460ff1690806008015490508a565b600060056000838152602001908152602001600020600001549050600015156005600084815260200190815260200160002060070160009054906101000a900460ff1615151461150a576040517f08c379a000000000000000000000000000000000000000000000000000000000815260040161150190613ecb565b60405180910390fd5b6000811161154d576040517f08c379a000000000000000000000000000000000000000000000000000000000815260040161154490613f5d565b60405180910390fd5b6001811015611591576040517f08c379a000000000000000000000000000000000000000000000000000000000815260040161158890613fef565b60405180910390fd5b6000600560008481526020019081526020016000206000015460056000858152602001908152602001600020600601546115cb9190613c8a565b9050600081905080341015611615576040517f08c379a000000000000000000000000000000000000000000000000000000000815260040161160c9061405b565b60405180910390fd5b60006007600086815260200190815260200160002060003373ffffffffffffffffffffffffffffffffffffffff1673ffffffffffffffffffffffffffffffffffffffff16815260200190815260200160002054036116e25760066000858152602001908152602001600020339080600181540180825580915050600190039060005260206000200160009091909190916101000a81548173ffffffffffffffffffffffffffffffffffffffff021916908373ffffffffffffffffffffffffffffffffffffffff1602179055505b6007600085815260200190815260200160002060003373ffffffffffffffffffffffffffffffffffffffff1673ffffffffffffffffffffffffffffffffffffffff168152602001908152602001600020600081548092919061174390613ae4565b91905055503460056000868152602001908152602001600020600401600082825461176e919061407b565b9250508190555060056000858152602001908152602001600020600001600081548092919061179c906140af565b91905055503373ffffffffffffffffffffffffffffffffffffffff16847f24b22275ff9f36a2d0d5a5564c044f4618382392dab42d26cdfa0ff9cd9850d86001846040516117eb929190614113565b60405180910390a360006005600086815260200190815260200160002060000154036118415760016005600086815260200190815260200160002060070160006101000a81548160ff0219169083151502179055505b50505050565b60035481565b606060056000838152602001908152602001600020600101805461187090613627565b80601f016020809104026020016040519081016040528092919081815260200182805461189c90613627565b80156118e95780601f106118be576101008083540402835291602001916118e9565b820191906000526020600020905b8154815290600101906020018083116118cc57829003601f168201915b50505050509050919050565b600460009054906101000a900473ffffffffffffffffffffffffffffffffffffffff1681565b600460009054906101000a900473ffffffffffffffffffffffffffffffffffffffff1673ffffffffffffffffffffffffffffffffffffffff163373ffffffffffffffffffffffffffffffffffffffff16146119ab576040517f08c379a00000000000000000000000000000000000000000000000000000000081526004016119a29061356c565b60405180910390fd5b6000600560008381526020019081526020016000206006015411611a04576040517f08c379a00000000000000000000000000000000000000000000000000000000081526004016119fb90614188565b60405180910390fd5b60003411611a47576040517f08c379a0000000000000000000000000000000000000000000000000000000008152600401611a3e906141f4565b60405180910390fd5b34600560008381526020019081526020016000206005016000828254611a6d919061407b565b92505081905550807ff5e4934928a1e45d88c7a5aa2661fe0a801ca5017922e15122d74f1880155e1a34604051611aa49190612ba1565b60405180910390a250565b6000600160008473ffffffffffffffffffffffffffffffffffffffff1673ffffffffffffffffffffffffffffffffffffffff16815260200190815260200160002060008373ffffffffffffffffffffffffffffffffffffffff1673ffffffffffffffffffffffffffffffffffffffff16815260200190815260200160002060009054906101000a900460ff16905092915050565b6000611b4d611dbc565b90508073ffffffffffffffffffffffffffffffffffffffff168673ffffffffffffffffffffffffffffffffffffffff1614158015611b925750611b908682611aaf565b155b15611bd65780866040517fe237d922000000000000000000000000000000000000000000000000000000008152600401611bcd929190613b55565b60405180910390fd5b611be38686868686612054565b505050505050565b60007f01ffc9a7000000000000000000000000000000000000000000000000000000007bffffffffffffffffffffffffffffffffffffffffffffffffffffffff1916827bffffffffffffffffffffffffffffffffffffffffffffffffffffffff1916149050919050565b600073ffffffffffffffffffffffffffffffffffffffff168473ffffffffffffffffffffffffffffffffffffffff1603611cc75760006040517f57f447ce000000000000000000000000000000000000000000000000000000008152600401611cbe919061331f565b60405180910390fd5b600080611cd4858561215f565b91509150611ce660008784848761218f565b505050505050565b606060006001611cfd84612241565b01905060008167ffffffffffffffff811115611d1c57611d1b612dee565b5b6040519080825280601f01601f191660200182016040528015611d4e5781602001600182028036833780820191505090505b509050600082602001820190505b600115611db1578080600190039150507f3031323334353637383961626364656600000000000000000000000000000000600a86061a8153600a8581611da557611da4613c5b565b5b04945060008503611d5c575b819350505050919050565b600033905090565b600073ffffffffffffffffffffffffffffffffffffffff168473ffffffffffffffffffffffffffffffffffffffff1603611e365760006040517f57f447ce000000000000000000000000000000000000000000000000000000008152600401611e2d919061331f565b60405180910390fd5b600073ffffffffffffffffffffffffffffffffffffffff168573ffffffffffffffffffffffffffffffffffffffff1603611ea85760006040517f01a83514000000000000000000000000000000000000000000000000000000008152600401611e9f919061331f565b60405180910390fd5b611eb5858585858561218f565b5050505050565b600060208202602084010151905092915050565b600060208202602084010151905092915050565b600073ffffffffffffffffffffffffffffffffffffffff168273ffffffffffffffffffffffffffffffffffffffff1603611f565760006040517fced3e100000000000000000000000000000000000000000000000000000000008152600401611f4d919061331f565b60405180910390fd5b80600160008573ffffffffffffffffffffffffffffffffffffffff1673ffffffffffffffffffffffffffffffffffffffff16815260200190815260200160002060008473ffffffffffffffffffffffffffffffffffffffff1673ffffffffffffffffffffffffffffffffffffffff16815260200190815260200160002060006101000a81548160ff0219169083151502179055508173ffffffffffffffffffffffffffffffffffffffff168373ffffffffffffffffffffffffffffffffffffffff167f17307eab39ab6107e8899845ad3d59bd9653f200f220920489ca2b5937696c31836040516120479190612c5c565b60405180910390a3505050565b600073ffffffffffffffffffffffffffffffffffffffff168473ffffffffffffffffffffffffffffffffffffffff16036120c65760006040517f57f447ce0000000000000000000000000000000000000000000000000000000081526004016120bd919061331f565b60405180910390fd5b600073ffffffffffffffffffffffffffffffffffffffff168573ffffffffffffffffffffffffffffffffffffffff16036121385760006040517f01a8351400000000000000000000000000000000000000000000000000000000815260040161212f919061331f565b60405180910390fd5b600080612145858561215f565b91509150612156878784848761218f565b50505050505050565b60608060405191506001825283602083015260408201905060018152826020820152604081016040529250929050565b61219b85858585612394565b600073ffffffffffffffffffffffffffffffffffffffff168473ffffffffffffffffffffffffffffffffffffffff161461223a5760006121d9611dbc565b905060018451036122295760006121fa600086611ed090919063ffffffff16565b90506000612212600086611ed090919063ffffffff16565b9050612222838989858589612742565b5050612238565b6122378187878787876128f6565b5b505b5050505050565b600080600090507a184f03e93ff9f4daa797ed6e38ed64bf6a1f010000000000000000831061229f577a184f03e93ff9f4daa797ed6e38ed64bf6a1f010000000000000000838161229557612294613c5b565b5b0492506040810190505b6d04ee2d6d415b85acef810000000083106122dc576d04ee2d6d415b85acef810000000083816122d2576122d1613c5b565b5b0492506020810190505b662386f26fc10000831061230b57662386f26fc10000838161230157612300613c5b565b5b0492506010810190505b6305f5e1008310612334576305f5e100838161232a57612329613c5b565b5b0492506008810190505b612710831061235957612710838161234f5761234e613c5b565b5b0492506004810190505b6064831061237c576064838161237257612371613c5b565b5b0492506002810190505b600a831061238b576001810190505b80915050919050565b80518251146123de57815181516040517f5b0599910000000000000000000000000000000000000000000000000000000081526004016123d5929190613b2c565b60405180910390fd5b60006123e8611dbc565b905060005b83518110156125fd57600061240b8286611ed090919063ffffffff16565b905060006124228386611ed090919063ffffffff16565b9050600073ffffffffffffffffffffffffffffffffffffffff168873ffffffffffffffffffffffffffffffffffffffff161461254f57600080600084815260200190815260200160002060008a73ffffffffffffffffffffffffffffffffffffffff1673ffffffffffffffffffffffffffffffffffffffff168152602001908152602001600020549050818110156124f757888183856040517f03dee4c50000000000000000000000000000000000000000000000000000000081526004016124ee9493929190614214565b60405180910390fd5b81810360008085815260200190815260200160002060008b73ffffffffffffffffffffffffffffffffffffffff1673ffffffffffffffffffffffffffffffffffffffff16815260200190815260200160002081905550505b600073ffffffffffffffffffffffffffffffffffffffff168773ffffffffffffffffffffffffffffffffffffffff16146125ea578060008084815260200190815260200160002060008973ffffffffffffffffffffffffffffffffffffffff1673ffffffffffffffffffffffffffffffffffffffff16815260200190815260200160002060008282546125e2919061407b565b925050819055505b5050806125f690613ae4565b90506123ed565b5060018351036126bc57600061261d600085611ed090919063ffffffff16565b90506000612635600085611ed090919063ffffffff16565b90508573ffffffffffffffffffffffffffffffffffffffff168773ffffffffffffffffffffffffffffffffffffffff168473ffffffffffffffffffffffffffffffffffffffff167fc3d58168c5ae7397731d063d5bbf3d657854427343f4c083240f7aacaa2d0f6285856040516126ad929190613b2c565b60405180910390a4505061273b565b8373ffffffffffffffffffffffffffffffffffffffff168573ffffffffffffffffffffffffffffffffffffffff168273ffffffffffffffffffffffffffffffffffffffff167f4a39dc06d4c0dbc64b70af90fd698a233a518aa5d07e595d983b8c0526c8f7fb8686604051612732929190614259565b60405180910390a45b5050505050565b60008473ffffffffffffffffffffffffffffffffffffffff163b11156128ee578373ffffffffffffffffffffffffffffffffffffffff1663f23a6e6187878686866040518663ffffffff1660e01b81526004016127a39594939291906142e5565b6020604051808303816000875af19250505080156127df57506040513d601f19601f820116820180604052508101906127dc9190614354565b60015b612863573d806000811461280f576040519150601f19603f3d011682016040523d82523d6000602084013e612814565b606091505b50600081510361285b57846040517f57f447ce000000000000000000000000000000000000000000000000000000008152600401612852919061331f565b60405180910390fd5b805181602001fd5b63f23a6e6160e01b7bffffffffffffffffffffffffffffffffffffffffffffffffffffffff1916817bffffffffffffffffffffffffffffffffffffffffffffffffffffffff1916146128ec57846040517f57f447ce0000000000000000000000000000000000000000000000000000000081526004016128e3919061331f565b60405180910390fd5b505b505050505050565b60008473ffffffffffffffffffffffffffffffffffffffff163b1115612aa2578373ffffffffffffffffffffffffffffffffffffffff1663bc197c8187878686866040518663ffffffff1660e01b8152600401612957959493929190614381565b6020604051808303816000875af192505050801561299357506040513d601f19601f820116820180604052508101906129909190614354565b60015b612a17573d80600081146129c3576040519150601f19603f3d011682016040523d82523d6000602084013e6129c8565b606091505b506000815103612a0f57846040517f57f447ce000000000000000000000000000000000000000000000000000000008152600401612a06919061331f565b60405180910390fd5b805181602001fd5b63bc197c8160e01b7bffffffffffffffffffffffffffffffffffffffffffffffffffffffff1916817bffffffffffffffffffffffffffffffffffffffffffffffffffffffff191614612aa057846040517f57f447ce000000000000000000000000000000000000000000000000000000008152600401612a97919061331f565b60405180910390fd5b505b505050505050565b6000604051905090565b600080fd5b600080fd5b600073ffffffffffffffffffffffffffffffffffffffff82169050919050565b6000612ae982612abe565b9050919050565b612af981612ade565b8114612b0457600080fd5b50565b600081359050612b1681612af0565b92915050565b6000819050919050565b612b2f81612b1c565b8114612b3a57600080fd5b50565b600081359050612b4c81612b26565b92915050565b60008060408385031215612b6957612b68612ab4565b5b6000612b7785828601612b07565b9250506020612b8885828601612b3d565b9150509250929050565b612b9b81612b1c565b82525050565b6000602082019050612bb66000830184612b92565b92915050565b60007fffffffff0000000000000000000000000000000000000000000000000000000082169050919050565b612bf181612bbc565b8114612bfc57600080fd5b50565b600081359050612c0e81612be8565b92915050565b600060208284031215612c2a57612c29612ab4565b5b6000612c3884828501612bff565b91505092915050565b60008115159050919050565b612c5681612c41565b82525050565b6000602082019050612c716000830184612c4d565b92915050565b600060208284031215612c8d57612c8c612ab4565b5b6000612c9b84828501612b3d565b91505092915050565b600081519050919050565b600082825260208201905092915050565b60005b83811015612cde578082015181840152602081019050612cc3565b60008484015250505050565b6000601f19601f8301169050919050565b6000612d0682612ca4565b612d108185612caf565b9350612d20818560208601612cc0565b612d2981612cea565b840191505092915050565b60006020820190508181036000830152612d4e8184612cfb565b905092915050565b60008060408385031215612d6d57612d6c612ab4565b5b6000612d7b85828601612b3d565b9250506020612d8c85828601612b07565b9150509250929050565b600080600060608486031215612daf57612dae612ab4565b5b6000612dbd86828701612b3d565b9350506020612dce86828701612b3d565b9250506040612ddf86828701612b3d565b9150509250925092565b600080fd5b7f4e487b7100000000000000000000000000000000000000000000000000000000600052604160045260246000fd5b612e2682612cea565b810181811067ffffffffffffffff82111715612e4557612e44612dee565b5b80604052505050565b6000612e58612aaa565b9050612e648282612e1d565b919050565b600067ffffffffffffffff821115612e8457612e83612dee565b5b602082029050602081019050919050565b600080fd5b6000612ead612ea884612e69565b612e4e565b90508083825260208201905060208402830185811115612ed057612ecf612e95565b5b835b81811015612ef95780612ee58882612b3d565b845260208401935050602081019050612ed2565b5050509392505050565b600082601f830112612f1857612f17612de9565b5b8135612f28848260208601612e9a565b91505092915050565b600080fd5b600067ffffffffffffffff821115612f5157612f50612dee565b5b612f5a82612cea565b9050602081019050919050565b82818337600083830152505050565b6000612f89612f8484612f36565b612e4e565b905082815260208101848484011115612fa557612fa4612f31565b5b612fb0848285612f67565b509392505050565b600082601f830112612fcd57612fcc612de9565b5b8135612fdd848260208601612f76565b91505092915050565b600080600080600060a0868803121561300257613001612ab4565b5b600061301088828901612b07565b955050602061302188828901612b07565b945050604086013567ffffffffffffffff81111561304257613041612ab9565b5b61304e88828901612f03565b935050606086013567ffffffffffffffff81111561306f5761306e612ab9565b5b61307b88828901612f03565b925050608086013567ffffffffffffffff81111561309c5761309b612ab9565b5b6130a888828901612fb8565b9150509295509295909350565b600067ffffffffffffffff8211156130d0576130cf612dee565b5b602082029050602081019050919050565b60006130f46130ef846130b5565b612e4e565b9050808382526020820190506020840283018581111561311757613116612e95565b5b835b81811015613140578061312c8882612b07565b845260208401935050602081019050613119565b5050509392505050565b600082601f83011261315f5761315e612de9565b5b813561316f8482602086016130e1565b91505092915050565b6000806040838503121561318f5761318e612ab4565b5b600083013567ffffffffffffffff8111156131ad576131ac612ab9565b5b6131b98582860161314a565b925050602083013567ffffffffffffffff8111156131da576131d9612ab9565b5b6131e685828601612f03565b9150509250929050565b600081519050919050565b600082825260208201905092915050565b6000819050602082019050919050565b61322581612b1c565b82525050565b6000613237838361321c565b60208301905092915050565b6000602082019050919050565b600061325b826131f0565b61326581856131fb565b93506132708361320c565b8060005b838110156132a1578151613288888261322b565b975061329383613243565b925050600181019050613274565b5085935050505092915050565b600060208201905081810360008301526132c88184613250565b905092915050565b600080604083850312156132e7576132e6612ab4565b5b60006132f585828601612b3d565b925050602061330685828601612b3d565b9150509250929050565b61331981612ade565b82525050565b60006020820190506133346000830184613310565b92915050565b61334381612c41565b811461334e57600080fd5b50565b6000813590506133608161333a565b92915050565b6000806040838503121561337d5761337c612ab4565b5b600061338b85828601612b07565b925050602061339c85828601613351565b9150509250929050565b6000610140820190506133bc600083018d612b92565b81810360208301526133ce818c612cfb565b90506133dd604083018b613310565b6133ea606083018a612b92565b6133f76080830189612b92565b61340460a0830188612b92565b61341160c0830187612b92565b61341e60e0830186612c4d565b61342c610100830185612c4d565b61343a610120830184612b92565b9b9a5050505050505050505050565b600080604083850312156134605761345f612ab4565b5b600061346e85828601612b07565b925050602061347f85828601612b07565b9150509250929050565b600080600080600060a086880312156134a5576134a4612ab4565b5b60006134b388828901612b07565b95505060206134c488828901612b07565b94505060406134d588828901612b3d565b93505060606134e688828901612b3d565b925050608086013567ffffffffffffffff81111561350757613506612ab9565b5b61351388828901612fb8565b9150509295509295909350565b7f4e6f7420746865206f776e657200000000000000000000000000000000000000600082015250565b6000613556600d83612caf565b915061356182613520565b602082019050919050565b6000602082019050818103600083015261358581613549565b9050919050565b7f536f6e6720697320616c72656164792072656c65617365640000000000000000600082015250565b60006135c2601883612caf565b91506135cd8261358c565b602082019050919050565b600060208201905081810360008301526135f1816135b5565b9050919050565b7f4e487b7100000000000000000000000000000000000000000000000000000000600052602260045260246000fd5b6000600282049050600182168061363f57607f821691505b602082108103613652576136516135f8565b5b50919050565b7f4e6f2066756e647320746f207769746864726177000000000000000000000000600082015250565b600061368e601483612caf565b915061369982613658565b602082019050919050565b600060208201905081810360008301526136bd81613681565b9050919050565b600081905092915050565b7f68747470733a2f2f61707269636f742d61646f7261626c652d62757a7a61726460008201527f2d3638352e6d7970696e6174612e636c6f75642f697066732f516d616659565260208201527f4d613961576a32515a414359655566624458747472795335537964617a64696a60408201527f58634e56666d732f000000000000000000000000000000000000000000000000606082015250565b60006137776068836136c4565b9150613782826136cf565b606882019050919050565b600061379882612ca4565b6137a281856136c4565b93506137b2818560208601612cc0565b80840191505092915050565b7f2e6a736f6e000000000000000000000000000000000000000000000000000000600082015250565b60006137f46005836136c4565b91506137ff826137be565b600582019050919050565b60006138158261376a565b9150613821828461378d565b915061382c826137e7565b915081905092915050565b60008190508160005260206000209050919050565b60006020601f8301049050919050565b600082821b905092915050565b6000600883026138997fffffffffffffffffffffffffffffffffffffffffffffffffffffffffffffffff8261385c565b6138a3868361385c565b95508019841693508086168417925050509392505050565b6000819050919050565b60006138e06138db6138d684612b1c565b6138bb565b612b1c565b9050919050565b6000819050919050565b6138fa836138c5565b61390e613906826138e7565b848454613869565b825550505050565b600090565b613923613916565b61392e8184846138f1565b505050565b5b818110156139525761394760008261391b565b600181019050613934565b5050565b601f8211156139975761396881613837565b6139718461384c565b81016020851015613980578190505b61399461398c8561384c565b830182613933565b50505b505050565b600082821c905092915050565b60006139ba6000198460080261399c565b1980831691505092915050565b60006139d383836139a9565b9150826002028217905092915050565b6139ec82612ca4565b67ffffffffffffffff811115613a0557613a04612dee565b5b613a0f8254613627565b613a1a828285613956565b600060209050601f831160018114613a4d5760008415613a3b578287015190505b613a4585826139c7565b865550613aad565b601f198416613a5b86613837565b60005b82811015613a8357848901518255600182019150602085019450602081019050613a5e565b86831015613aa05784890151613a9c601f8916826139a9565b8355505b6001600288020188555050505b505050505050565b7f4e487b7100000000000000000000000000000000000000000000000000000000600052601160045260246000fd5b6000613aef82612b1c565b91507fffffffffffffffffffffffffffffffffffffffffffffffffffffffffffffffff8203613b2157613b20613ab5565b5b600182019050919050565b6000604082019050613b416000830185612b92565b613b4e6020830184612b92565b9392505050565b6000604082019050613b6a6000830185613310565b613b776020830184613310565b9392505050565b7f536f6e67206e6f742072656c6561736564207965740000000000000000000000600082015250565b6000613bb4601583612caf565b9150613bbf82613b7e565b602082019050919050565b60006020820190508181036000830152613be381613ba7565b9050919050565b7f4e487b7100000000000000000000000000000000000000000000000000000000600052603260045260246000fd5b6000613c2482612b1c565b9150613c2f83612b1c565b9250828202613c3d81612b1c565b91508282048414831517613c5457613c53613ab5565b5b5092915050565b7f4e487b7100000000000000000000000000000000000000000000000000000000600052601260045260246000fd5b6000613c9582612b1c565b9150613ca083612b1c565b925082613cb057613caf613c5b565b5b828204905092915050565b7f536f6e67206d7573742062652072656c656173656420746f206469737472696260008201527f75746520726576656e7565000000000000000000000000000000000000000000602082015250565b6000613d17602b83612caf565b9150613d2282613cbb565b604082019050919050565b60006020820190508181036000830152613d4681613d0a565b9050919050565b7f4e6f2066756e647320617661696c61626c6520666f722064697374726962757460008201527f696f6e0000000000000000000000000000000000000000000000000000000000602082015250565b6000613da9602383612caf565b9150613db482613d4d565b604082019050919050565b60006020820190508181036000830152613dd881613d9c565b9050919050565b7f4e6f206672616374696f6e7320736f6c64000000000000000000000000000000600082015250565b6000613e15601183612caf565b9150613e2082613ddf565b602082019050919050565b60006020820190508181036000830152613e4481613e08565b9050919050565b6000613e5682612b1c565b9150613e6183612b1c565b9250828203905081811115613e7957613e78613ab5565b5b92915050565b7f546f6b656e20697320736f6c64206f7574000000000000000000000000000000600082015250565b6000613eb5601183612caf565b9150613ec082613e7f565b602082019050919050565b60006020820190508181036000830152613ee481613ea8565b9050919050565b7f4e6f206672616374696f6e616c206f776e65727368697020617661696c61626c60008201527f6500000000000000000000000000000000000000000000000000000000000000602082015250565b6000613f47602183612caf565b9150613f5282613eeb565b604082019050919050565b60006020820190508181036000830152613f7681613f3a565b9050919050565b7f4e6f7420656e6f756768206672616374696f6e616c206f776e6572736869702060008201527f617661696c61626c650000000000000000000000000000000000000000000000602082015250565b6000613fd9602983612caf565b9150613fe482613f7d565b604082019050919050565b6000602082019050818103600083015261400881613fcc565b9050919050565b7f496e636f727265637420616d6f756e74206f66204554482073656e7400000000600082015250565b6000614045601c83612caf565b91506140508261400f565b602082019050919050565b6000602082019050818103600083015261407481614038565b9050919050565b600061408682612b1c565b915061409183612b1c565b92508282019050808211156140a9576140a8613ab5565b5b92915050565b60006140ba82612b1c565b9150600082036140cd576140cc613ab5565b5b600182039050919050565b6000819050919050565b60006140fd6140f86140f3846140d8565b6138bb565b612b1c565b9050919050565b61410d816140e2565b82525050565b60006040820190506141286000830185614104565b6141356020830184612b92565b9392505050565b7f4e465420646f6573206e6f742065786973740000000000000000000000000000600082015250565b6000614172601283612caf565b915061417d8261413c565b602082019050919050565b600060208201905081810360008301526141a181614165565b9050919050565b7f4e6f2066756e64732070726f7669646564000000000000000000000000000000600082015250565b60006141de601183612caf565b91506141e9826141a8565b602082019050919050565b6000602082019050818103600083015261420d816141d1565b9050919050565b60006080820190506142296000830187613310565b6142366020830186612b92565b6142436040830185612b92565b6142506060830184612b92565b95945050505050565b600060408201905081810360008301526142738185613250565b905081810360208301526142878184613250565b90509392505050565b600081519050919050565b600082825260208201905092915050565b60006142b782614290565b6142c1818561429b565b93506142d1818560208601612cc0565b6142da81612cea565b840191505092915050565b600060a0820190506142fa6000830188613310565b6143076020830187613310565b6143146040830186612b92565b6143216060830185612b92565b818103608083015261433381846142ac565b90509695505050505050565b60008151905061434e81612be8565b92915050565b60006020828403121561436a57614369612ab4565b5b60006143788482850161433f565b91505092915050565b600060a0820190506143966000830188613310565b6143a36020830187613310565b81810360408301526143b58186613250565b905081810360608301526143c98185613250565b905081810360808301526143dd81846142ac565b9050969550505050505056fea26469706673582212205bf748da4b766d029a8840924d2927fa21a297e22034aeab16560bcdea30825364736f6c6343000814003368747470733a2f2f61707269636f742d61646f7261626c652d62757a7a6172642d3638352e6d7970696e6174612e636c6f75642f697066732f516d61665956524d613961576a32515a414359655566624458747472795335537964617a64696a58634e56666d732f",
  "linkReferences": {},
  "deployedLinkReferences": {}
}